{
	"data": {
		"bytecode": {
			"linkReferences": {},
			"object": "608060405234801561001057600080fd5b5033600460006101000a81548173ffffffffffffffffffffffffffffffffffffffff021916908373ffffffffffffffffffffffffffffffffffffffff160217905550612448806100616000396000f3fe6080604052600436106100555760003560e01c8063120fe89b1461005a578063507ffba514610085578063832880e7146100ae5780638da5cb5b146100d957806396db255114610104578063b384abef1461012d575b600080fd5b34801561006657600080fd5b5061006f610149565b60405161007c9190611d90565b60405180910390f35b34801561009157600080fd5b506100ac60048036038101906100a7919061154c565b610ac9565b005b3480156100ba57600080fd5b506100c3610b8f565b6040516100d09190611cae565b60405180910390f35b3480156100e557600080fd5b506100ee610c5e565b6040516100fb9190611c93565b60405180910390f35b34801561011057600080fd5b5061012b60048036038101906101269190611595565b610c84565b005b61014760048036038101906101429190611676565b610ebe565b005b610151611251565b6000805467ffffffffffffffff81111561016e5761016d61223a565b5b60405190808252806020026020018201604052801561019c5781602001602082028036833780820191505090505b5090506000805467ffffffffffffffff8111156101bc576101bb61223a565b5b6040519080825280602002602001820160405280156101ef57816020015b60608152602001906001900390816101da5790505b5090506000805467ffffffffffffffff81111561020f5761020e61223a565b5b60405190808252806020026020018201604052801561024257816020015b606081526020019060019003908161022d5790505b5090506000805467ffffffffffffffff8111156102625761026161223a565b5b6040519080825280602002602001820160405280156102905781602001602082028036833780820191505090505b5090506000805467ffffffffffffffff8111156102b0576102af61223a565b5b6040519080825280602002602001820160405280156102de5781602001602082028036833780820191505090505b5090506000805467ffffffffffffffff8111156102fe576102fd61223a565b5b60405190808252806020026020018201604052801561032c5781602001602082028036833780820191505090505b5090506000805467ffffffffffffffff81111561034c5761034b61223a565b5b60405190808252806020026020018201604052801561037a5781602001602082028036833780820191505090505b5090506000805467ffffffffffffffff81111561039a5761039961223a565b5b6040519080825280602002602001820160405280156103c85781602001602082028036833780820191505090505b5090506000805467ffffffffffffffff8111156103e8576103e761223a565b5b60405190808252806020026020018201604052801561041b57816020015b60608152602001906001900390816104065790505b5090506000805467ffffffffffffffff81111561043b5761043a61223a565b5b60405190808252806020026020018201604052801561046e57816020015b60608152602001906001900390816104595790505b50905060005b600054811015610a73576003600082815260200190815260200160002060000160009054906101000a900473ffffffffffffffffffffffffffffffffffffffff168b82815181106104c8576104c761220b565b5b602002602001019073ffffffffffffffffffffffffffffffffffffffff16908173ffffffffffffffffffffffffffffffffffffffff168152505060036000828152602001908152602001600020600101805461052390612101565b80601f016020809104026020016040519081016040528092919081815260200182805461054f90612101565b801561059c5780601f106105715761010080835404028352916020019161059c565b820191906000526020600020905b81548152906001019060200180831161057f57829003601f168201915b50505050508a82815181106105b4576105b361220b565b5b60200260200101819052506003600082815260200190815260200160002060020180546105e090612101565b80601f016020809104026020016040519081016040528092919081815260200182805461060c90612101565b80156106595780601f1061062e57610100808354040283529160200191610659565b820191906000526020600020905b81548152906001019060200180831161063c57829003601f168201915b50505050508982815181106106715761067061220b565b5b602002602001018190525060036000828152602001908152602001600020600301548882815181106106a6576106a561220b565b5b60200260200101818152505060036000828152602001908152602001600020600401548782815181106106dc576106db61220b565b5b60200260200101818152505060036000828152602001908152602001600020600501548682815181106107125761071161220b565b5b602002602001018181525050808582815181106107325761073161220b565b5b6020026020010181815250506003600082815260200190815260200160002060090160003373ffffffffffffffffffffffffffffffffffffffff1673ffffffffffffffffffffffffffffffffffffffff168152602001908152602001600020548482815181106107a5576107a461220b565b5b60200260200101818152505060006003600083815260200190815260200160002060060154905060008167ffffffffffffffff8111156107e8576107e761223a565b5b6040519080825280602002602001820160405280156108165781602001602082028036833780820191505090505b50905060005b8281101561093a57600060036000868152602001908152602001600020600701600060018461084b919061202d565b815260200190815260200160002060405180604001604052908160008201805461087490612101565b80601f01602080910402602001604051908101604052809291908181526020018280546108a090612101565b80156108ed5780601f106108c2576101008083540402835291602001916108ed565b820191906000526020600020905b8154815290600101906020018083116108d057829003601f168201915b505050505081526020016001820154815250509050806020015183838151811061091a5761091961220b565b5b60200260200101818152505050808061093290612164565b91505061081c565b5060036000848152602001908152602001600020600801805480602002602001604051908101604052809291908181526020016000905b82821015610a1d57838290600052602060002001805461099090612101565b80601f01602080910402602001604051908101604052809291908181526020018280546109bc90612101565b8015610a095780601f106109de57610100808354040283529160200191610a09565b820191906000526020600020905b8154815290600101906020018083116109ec57829003601f168201915b505050505081526020019060010190610971565b50505050858481518110610a3457610a3361220b565b5b602002602001018190525080848481518110610a5357610a5261220b565b5b602002602001018190525050508080610a6b90612164565b915050610474565b506040518061014001604052808b81526020018a8152602001898152602001888152602001878152602001868152602001858152602001838152602001828152602001848152509a505050505050505050505090565b610ad281611242565b610adb57600080fd5b80600160003373ffffffffffffffffffffffffffffffffffffffff1673ffffffffffffffffffffffffffffffffffffffff1681526020019081526020016000209080519060200190610b2e9291906112a4565b5033600282604051610b409190611c7c565b908152602001604051809103902060006101000a81548173ffffffffffffffffffffffffffffffffffffffff021916908373ffffffffffffffffffffffffffffffffffffffff16021790555050565b6060600160003373ffffffffffffffffffffffffffffffffffffffff1673ffffffffffffffffffffffffffffffffffffffff1681526020019081526020016000208054610bdb90612101565b80601f0160208091040260200160405190810160405280929190818152602001828054610c0790612101565b8015610c545780601f10610c2957610100808354040283529160200191610c54565b820191906000526020600020905b815481529060010190602001808311610c3757829003601f168201915b5050505050905090565b600460009054906101000a900473ffffffffffffffffffffffffffffffffffffffff1681565b610c8d86611242565b8015610c9e5750610c9d85611242565b5b610ca757600080fd5b83831015610cb457600080fd5b600281511015610cc357600080fd5b60005b8151811015610d0e57610cf2828281518110610ce557610ce461220b565b5b6020026020010151611242565b610cfb57600080fd5b8080610d0690612164565b915050610cc6565b50600060036000805481526020019081526020016000209050338160000160006101000a81548173ffffffffffffffffffffffffffffffffffffffff021916908373ffffffffffffffffffffffffffffffffffffffff16021790555086816001019080519060200190610d829291906112a4565b5085816002019080519060200190610d9b9291906112a4565b508481600301819055508381600401819055508281600501819055508151816006018190555081816008019080519060200190610dd992919061132a565b5060005b8251811015610e5657600082600701600060018560060154610dff919061202d565b81526020019081526020016000209050838281518110610e2257610e2161220b565b5b6020026020010151816000019080519060200190610e419291906112a4565b50508080610e4e90612164565b915050610ddd565b507fe944d8ea112591bd5e0e3c2dfd471875a6bf4e30f3ea9d4d975972168700ee2060005433898989898989604051610e96989796959493929190611db2565b60405180910390a1600080815480929190610eb090612164565b919050555050505050505050565b6000548210610f02576040517f08c379a0000000000000000000000000000000000000000000000000000000008152600401610ef990611d30565b60405180910390fd5b60036000838152602001908152602001600020600601548110610f5a576040517f08c379a0000000000000000000000000000000000000000000000000000000008152600401610f5190611d70565b60405180910390fd5b60006003600084815260200190815260200160002060090160003373ffffffffffffffffffffffffffffffffffffffff1673ffffffffffffffffffffffffffffffffffffffff1681526020019081526020016000205414610ff0576040517f08c379a0000000000000000000000000000000000000000000000000000000008152600401610fe790611cf0565b60405180910390fd5b4260036000848152602001908152602001600020600301541115611049576040517f08c379a000000000000000000000000000000000000000000000000000000000815260040161104090611d10565b60405180910390fd5b42600360008481526020019081526020016000206004015410156110a2576040517f08c379a000000000000000000000000000000000000000000000000000000000815260040161109990611d50565b60405180910390fd5b60036000838152602001908152602001600020600501543410156110fb576040517f08c379a00000000000000000000000000000000000000000000000000000000081526004016110f290611cd0565b60405180910390fd5b600181611108919061202d565b6003600084815260200190815260200160002060090160003373ffffffffffffffffffffffffffffffffffffffff1673ffffffffffffffffffffffffffffffffffffffff16815260200190815260200160002081905550600360008381526020019081526020016000206007016000600183611184919061202d565b815260200190815260200160002060010160008154809291906111a690612164565b91905055506003600083815260200190815260200160002060000160009054906101000a900473ffffffffffffffffffffffffffffffffffffffff1673ffffffffffffffffffffffffffffffffffffffff166108fc60036000858152602001908152602001600020600501549081150290604051600060405180830381858888f1935050505015801561123d573d6000803e3d6000fd5b505050565b60006001825110159050919050565b604051806101400160405280606081526020016060815260200160608152602001606081526020016060815260200160608152602001606081526020016060815260200160608152602001606081525090565b8280546112b090612101565b90600052602060002090601f0160209004810192826112d25760008555611319565b82601f106112eb57805160ff1916838001178555611319565b82800160010185558215611319579182015b828111156113185782518255916020019190600101906112fd565b5b509050611326919061138a565b5090565b828054828255906000526020600020908101928215611379579160200282015b828111156113785782518290805190602001906113689291906112a4565b509160200191906001019061134a565b5b50905061138691906113a7565b5090565b5b808211156113a357600081600090555060010161138b565b5090565b5b808211156113c757600081816113be91906113cb565b506001016113a8565b5090565b5080546113d790612101565b6000825580601f106113e95750611408565b601f016020900490600052602060002090810190611407919061138a565b5b50565b600061141e61141984611e6a565b611e45565b905080838252602082019050828560208602820111156114415761144061226e565b5b60005b8581101561148f57813567ffffffffffffffff81111561146757611466612269565b5b8086016114748982611509565b85526020850194506020840193505050600181019050611444565b5050509392505050565b60006114ac6114a784611e96565b611e45565b9050828152602081018484840111156114c8576114c7612273565b5b6114d38482856120bf565b509392505050565b600082601f8301126114f0576114ef612269565b5b813561150084826020860161140b565b91505092915050565b600082601f83011261151e5761151d612269565b5b813561152e848260208601611499565b91505092915050565b600081359050611546816123fb565b92915050565b6000602082840312156115625761156161227d565b5b600082013567ffffffffffffffff8111156115805761157f612278565b5b61158c84828501611509565b91505092915050565b60008060008060008060c087890312156115b2576115b161227d565b5b600087013567ffffffffffffffff8111156115d0576115cf612278565b5b6115dc89828a01611509565b965050602087013567ffffffffffffffff8111156115fd576115fc612278565b5b61160989828a01611509565b955050604061161a89828a01611537565b945050606061162b89828a01611537565b935050608061163c89828a01611537565b92505060a087013567ffffffffffffffff81111561165d5761165c612278565b5b61166989828a016114db565b9150509295509295509295565b6000806040838503121561168d5761168c61227d565b5b600061169b85828601611537565b92505060206116ac85828601611537565b9150509250929050565b60006116c28383611722565b60208301905092915050565b60006116da8383611888565b905092915050565b60006116ee8383611972565b905092915050565b600061170283836119d0565b905092915050565b60006117168383611c5e565b60208301905092915050565b61172b81612083565b82525050565b61173a81612083565b82525050565b600061174b82611f17565b6117558185611f9a565b935061176083611ec7565b8060005b8381101561179157815161177888826116b6565b975061178383611f59565b925050600181019050611764565b5085935050505092915050565b60006117a982611f22565b6117b38185611fab565b9350836020820285016117c585611ed7565b8060005b8581101561180157848403895281516117e285826116ce565b94506117ed83611f66565b925060208a019950506001810190506117c9565b50829750879550505050505092915050565b600061181e82611f2d565b6118288185611fbc565b93508360208202850161183a85611ee7565b8060005b85811015611876578484038952815161185785826116e2565b945061186283611f73565b925060208a0199505060018101905061183e565b50829750879550505050505092915050565b600061189382611f38565b61189d8185611fcd565b9350836020820285016118af85611ef7565b8060005b858110156118eb57848403895281516118cc85826116f6565b94506118d783611f80565b925060208a019950506001810190506118b3565b50829750879550505050505092915050565b600061190882611f38565b6119128185611fde565b93508360208202850161192485611ef7565b8060005b85811015611960578484038952815161194185826116f6565b945061194c83611f80565b925060208a01995050600181019050611928565b50829750879550505050505092915050565b600061197d82611f43565b6119878185611fef565b935061199283611f07565b8060005b838110156119c35781516119aa888261170a565b97506119b583611f8d565b925050600181019050611996565b5085935050505092915050565b60006119db82611f4e565b6119e58185612000565b93506119f58185602086016120ce565b6119fe81612282565b840191505092915050565b6000611a1482611f4e565b611a1e8185612011565b9350611a2e8185602086016120ce565b611a3781612282565b840191505092915050565b6000611a4d82611f4e565b611a578185612022565b9350611a678185602086016120ce565b80840191505092915050565b6000611a80602183612011565b9150611a8b82612293565b604082019050919050565b6000611aa3601683612011565b9150611aae826122e2565b602082019050919050565b6000611ac6602383612011565b9150611ad18261230b565b604082019050919050565b6000611ae9601383612011565b9150611af48261235a565b602082019050919050565b6000611b0c602283612011565b9150611b1782612383565b604082019050919050565b6000611b2f601583612011565b9150611b3a826123d2565b602082019050919050565b6000610140830160008301518482036000860152611b638282611740565b91505060208301518482036020860152611b7d8282611888565b91505060408301518482036040860152611b978282611888565b91505060608301518482036060860152611bb18282611972565b91505060808301518482036080860152611bcb8282611972565b91505060a083015184820360a0860152611be58282611972565b91505060c083015184820360c0860152611bff8282611972565b91505060e083015184820360e0860152611c19828261179e565b915050610100830151848203610100860152611c358282611813565b915050610120830151848203610120860152611c518282611972565b9150508091505092915050565b611c67816120b5565b82525050565b611c76816120b5565b82525050565b6000611c888284611a42565b915081905092915050565b6000602082019050611ca86000830184611731565b92915050565b60006020820190508181036000830152611cc88184611a09565b905092915050565b60006020820190508181036000830152611ce981611a73565b9050919050565b60006020820190508181036000830152611d0981611a96565b9050919050565b60006020820190508181036000830152611d2981611ab9565b9050919050565b60006020820190508181036000830152611d4981611adc565b9050919050565b60006020820190508181036000830152611d6981611aff565b9050919050565b60006020820190508181036000830152611d8981611b22565b9050919050565b60006020820190508181036000830152611daa8184611b45565b905092915050565b600061010082019050611dc8600083018b611c6d565b611dd5602083018a611731565b8181036040830152611de78189611a09565b90508181036060830152611dfb8188611a09565b9050611e0a6080830187611c6d565b611e1760a0830186611c6d565b611e2460c0830185611c6d565b81810360e0830152611e3681846118fd565b90509998505050505050505050565b6000611e4f611e60565b9050611e5b8282612133565b919050565b6000604051905090565b600067ffffffffffffffff821115611e8557611e8461223a565b5b602082029050602081019050919050565b600067ffffffffffffffff821115611eb157611eb061223a565b5b611eba82612282565b9050602081019050919050565b6000819050602082019050919050565b6000819050602082019050919050565b6000819050602082019050919050565b6000819050602082019050919050565b6000819050602082019050919050565b600081519050919050565b600081519050919050565b600081519050919050565b600081519050919050565b600081519050919050565b600081519050919050565b6000602082019050919050565b6000602082019050919050565b6000602082019050919050565b6000602082019050919050565b6000602082019050919050565b600082825260208201905092915050565b600082825260208201905092915050565b600082825260208201905092915050565b600082825260208201905092915050565b600082825260208201905092915050565b600082825260208201905092915050565b600082825260208201905092915050565b600082825260208201905092915050565b600081905092915050565b6000612038826120b5565b9150612043836120b5565b9250827fffffffffffffffffffffffffffffffffffffffffffffffffffffffffffffffff03821115612078576120776121ad565b5b828201905092915050565b600061208e82612095565b9050919050565b600073ffffffffffffffffffffffffffffffffffffffff82169050919050565b6000819050919050565b82818337600083830152505050565b60005b838110156120ec5780820151818401526020810190506120d1565b838111156120fb576000848401525b50505050565b6000600282049050600182168061211957607f821691505b6020821081141561212d5761212c6121dc565b5b50919050565b61213c82612282565b810181811067ffffffffffffffff8211171561215b5761215a61223a565b5b80604052505050565b600061216f826120b5565b91507fffffffffffffffffffffffffffffffffffffffffffffffffffffffffffffffff8214156121a2576121a16121ad565b5b600182019050919050565b7f4e487b7100000000000000000000000000000000000000000000000000000000600052601160045260246000fd5b7f4e487b7100000000000000000000000000000000000000000000000000000000600052602260045260246000fd5b7f4e487b7100000000000000000000000000000000000000000000000000000000600052603260045260246000fd5b7f4e487b7100000000000000000000000000000000000000000000000000000000600052604160045260246000fd5b600080fd5b600080fd5b600080fd5b600080fd5b600080fd5b6000601f19601f8301169050919050565b7f5573657220646f6573206e6f74206861766520656e6f7567682062616c616e6360008201527f6500000000000000000000000000000000000000000000000000000000000000602082015250565b7f557365722068617320616c726561647920766f74656400000000000000000000600082015250565b7f557365722068617320747269656420766f74696e6720696e207468652066757460008201527f7572650000000000000000000000000000000000000000000000000000000000602082015250565b7f506f6c6c20646f6573206e6f7420657869737400000000000000000000000000600082015250565b7f557365722068617320747269656420766f74696e6720666f722074686520706160008201527f7374000000000000000000000000000000000000000000000000000000000000602082015250565b7f4f7074696f6e20646f6573206e6f742065786973740000000000000000000000600082015250565b612404816120b5565b811461240f57600080fd5b5056fea264697066735822122043dc80b40861bcf47938775097ac5c2f10ddbcec99ea935909ce1ae46d8a44b064736f6c63430008070033",
			"opcodes": "PUSH1 0x80 PUSH1 0x40 MSTORE CALLVALUE DUP1 ISZERO PUSH2 0x10 JUMPI PUSH1 0x0 DUP1 REVERT JUMPDEST POP CALLER PUSH1 0x4 PUSH1 0x0 PUSH2 0x100 EXP DUP2 SLOAD DUP2 PUSH20 0xFFFFFFFFFFFFFFFFFFFFFFFFFFFFFFFFFFFFFFFF MUL NOT AND SWAP1 DUP4 PUSH20 0xFFFFFFFFFFFFFFFFFFFFFFFFFFFFFFFFFFFFFFFF AND MUL OR SWAP1 SSTORE POP PUSH2 0x2448 DUP1 PUSH2 0x61 PUSH1 0x0 CODECOPY PUSH1 0x0 RETURN INVALID PUSH1 0x80 PUSH1 0x40 MSTORE PUSH1 0x4 CALLDATASIZE LT PUSH2 0x55 JUMPI PUSH1 0x0 CALLDATALOAD PUSH1 0xE0 SHR DUP1 PUSH4 0x120FE89B EQ PUSH2 0x5A JUMPI DUP1 PUSH4 0x507FFBA5 EQ PUSH2 0x85 JUMPI DUP1 PUSH4 0x832880E7 EQ PUSH2 0xAE JUMPI DUP1 PUSH4 0x8DA5CB5B EQ PUSH2 0xD9 JUMPI DUP1 PUSH4 0x96DB2551 EQ PUSH2 0x104 JUMPI DUP1 PUSH4 0xB384ABEF EQ PUSH2 0x12D JUMPI JUMPDEST PUSH1 0x0 DUP1 REVERT JUMPDEST CALLVALUE DUP1 ISZERO PUSH2 0x66 JUMPI PUSH1 0x0 DUP1 REVERT JUMPDEST POP PUSH2 0x6F PUSH2 0x149 JUMP JUMPDEST PUSH1 0x40 MLOAD PUSH2 0x7C SWAP2 SWAP1 PUSH2 0x1D90 JUMP JUMPDEST PUSH1 0x40 MLOAD DUP1 SWAP2 SUB SWAP1 RETURN JUMPDEST CALLVALUE DUP1 ISZERO PUSH2 0x91 JUMPI PUSH1 0x0 DUP1 REVERT JUMPDEST POP PUSH2 0xAC PUSH1 0x4 DUP1 CALLDATASIZE SUB DUP2 ADD SWAP1 PUSH2 0xA7 SWAP2 SWAP1 PUSH2 0x154C JUMP JUMPDEST PUSH2 0xAC9 JUMP JUMPDEST STOP JUMPDEST CALLVALUE DUP1 ISZERO PUSH2 0xBA JUMPI PUSH1 0x0 DUP1 REVERT JUMPDEST POP PUSH2 0xC3 PUSH2 0xB8F JUMP JUMPDEST PUSH1 0x40 MLOAD PUSH2 0xD0 SWAP2 SWAP1 PUSH2 0x1CAE JUMP JUMPDEST PUSH1 0x40 MLOAD DUP1 SWAP2 SUB SWAP1 RETURN JUMPDEST CALLVALUE DUP1 ISZERO PUSH2 0xE5 JUMPI PUSH1 0x0 DUP1 REVERT JUMPDEST POP PUSH2 0xEE PUSH2 0xC5E JUMP JUMPDEST PUSH1 0x40 MLOAD PUSH2 0xFB SWAP2 SWAP1 PUSH2 0x1C93 JUMP JUMPDEST PUSH1 0x40 MLOAD DUP1 SWAP2 SUB SWAP1 RETURN JUMPDEST CALLVALUE DUP1 ISZERO PUSH2 0x110 JUMPI PUSH1 0x0 DUP1 REVERT JUMPDEST POP PUSH2 0x12B PUSH1 0x4 DUP1 CALLDATASIZE SUB DUP2 ADD SWAP1 PUSH2 0x126 SWAP2 SWAP1 PUSH2 0x1595 JUMP JUMPDEST PUSH2 0xC84 JUMP JUMPDEST STOP JUMPDEST PUSH2 0x147 PUSH1 0x4 DUP1 CALLDATASIZE SUB DUP2 ADD SWAP1 PUSH2 0x142 SWAP2 SWAP1 PUSH2 0x1676 JUMP JUMPDEST PUSH2 0xEBE JUMP JUMPDEST STOP JUMPDEST PUSH2 0x151 PUSH2 0x1251 JUMP JUMPDEST PUSH1 0x0 DUP1 SLOAD PUSH8 0xFFFFFFFFFFFFFFFF DUP2 GT ISZERO PUSH2 0x16E JUMPI PUSH2 0x16D PUSH2 0x223A JUMP JUMPDEST JUMPDEST PUSH1 0x40 MLOAD SWAP1 DUP1 DUP3 MSTORE DUP1 PUSH1 0x20 MUL PUSH1 0x20 ADD DUP3 ADD PUSH1 0x40 MSTORE DUP1 ISZERO PUSH2 0x19C JUMPI DUP2 PUSH1 0x20 ADD PUSH1 0x20 DUP3 MUL DUP1 CALLDATASIZE DUP4 CALLDATACOPY DUP1 DUP3 ADD SWAP2 POP POP SWAP1 POP JUMPDEST POP SWAP1 POP PUSH1 0x0 DUP1 SLOAD PUSH8 0xFFFFFFFFFFFFFFFF DUP2 GT ISZERO PUSH2 0x1BC JUMPI PUSH2 0x1BB PUSH2 0x223A JUMP JUMPDEST JUMPDEST PUSH1 0x40 MLOAD SWAP1 DUP1 DUP3 MSTORE DUP1 PUSH1 0x20 MUL PUSH1 0x20 ADD DUP3 ADD PUSH1 0x40 MSTORE DUP1 ISZERO PUSH2 0x1EF JUMPI DUP2 PUSH1 0x20 ADD JUMPDEST PUSH1 0x60 DUP2 MSTORE PUSH1 0x20 ADD SWAP1 PUSH1 0x1 SWAP1 SUB SWAP1 DUP2 PUSH2 0x1DA JUMPI SWAP1 POP JUMPDEST POP SWAP1 POP PUSH1 0x0 DUP1 SLOAD PUSH8 0xFFFFFFFFFFFFFFFF DUP2 GT ISZERO PUSH2 0x20F JUMPI PUSH2 0x20E PUSH2 0x223A JUMP JUMPDEST JUMPDEST PUSH1 0x40 MLOAD SWAP1 DUP1 DUP3 MSTORE DUP1 PUSH1 0x20 MUL PUSH1 0x20 ADD DUP3 ADD PUSH1 0x40 MSTORE DUP1 ISZERO PUSH2 0x242 JUMPI DUP2 PUSH1 0x20 ADD JUMPDEST PUSH1 0x60 DUP2 MSTORE PUSH1 0x20 ADD SWAP1 PUSH1 0x1 SWAP1 SUB SWAP1 DUP2 PUSH2 0x22D JUMPI SWAP1 POP JUMPDEST POP SWAP1 POP PUSH1 0x0 DUP1 SLOAD PUSH8 0xFFFFFFFFFFFFFFFF DUP2 GT ISZERO PUSH2 0x262 JUMPI PUSH2 0x261 PUSH2 0x223A JUMP JUMPDEST JUMPDEST PUSH1 0x40 MLOAD SWAP1 DUP1 DUP3 MSTORE DUP1 PUSH1 0x20 MUL PUSH1 0x20 ADD DUP3 ADD PUSH1 0x40 MSTORE DUP1 ISZERO PUSH2 0x290 JUMPI DUP2 PUSH1 0x20 ADD PUSH1 0x20 DUP3 MUL DUP1 CALLDATASIZE DUP4 CALLDATACOPY DUP1 DUP3 ADD SWAP2 POP POP SWAP1 POP JUMPDEST POP SWAP1 POP PUSH1 0x0 DUP1 SLOAD PUSH8 0xFFFFFFFFFFFFFFFF DUP2 GT ISZERO PUSH2 0x2B0 JUMPI PUSH2 0x2AF PUSH2 0x223A JUMP JUMPDEST JUMPDEST PUSH1 0x40 MLOAD SWAP1 DUP1 DUP3 MSTORE DUP1 PUSH1 0x20 MUL PUSH1 0x20 ADD DUP3 ADD PUSH1 0x40 MSTORE DUP1 ISZERO PUSH2 0x2DE JUMPI DUP2 PUSH1 0x20 ADD PUSH1 0x20 DUP3 MUL DUP1 CALLDATASIZE DUP4 CALLDATACOPY DUP1 DUP3 ADD SWAP2 POP POP SWAP1 POP JUMPDEST POP SWAP1 POP PUSH1 0x0 DUP1 SLOAD PUSH8 0xFFFFFFFFFFFFFFFF DUP2 GT ISZERO PUSH2 0x2FE JUMPI PUSH2 0x2FD PUSH2 0x223A JUMP JUMPDEST JUMPDEST PUSH1 0x40 MLOAD SWAP1 DUP1 DUP3 MSTORE DUP1 PUSH1 0x20 MUL PUSH1 0x20 ADD DUP3 ADD PUSH1 0x40 MSTORE DUP1 ISZERO PUSH2 0x32C JUMPI DUP2 PUSH1 0x20 ADD PUSH1 0x20 DUP3 MUL DUP1 CALLDATASIZE DUP4 CALLDATACOPY DUP1 DUP3 ADD SWAP2 POP POP SWAP1 POP JUMPDEST POP SWAP1 POP PUSH1 0x0 DUP1 SLOAD PUSH8 0xFFFFFFFFFFFFFFFF DUP2 GT ISZERO PUSH2 0x34C JUMPI PUSH2 0x34B PUSH2 0x223A JUMP JUMPDEST JUMPDEST PUSH1 0x40 MLOAD SWAP1 DUP1 DUP3 MSTORE DUP1 PUSH1 0x20 MUL PUSH1 0x20 ADD DUP3 ADD PUSH1 0x40 MSTORE DUP1 ISZERO PUSH2 0x37A JUMPI DUP2 PUSH1 0x20 ADD PUSH1 0x20 DUP3 MUL DUP1 CALLDATASIZE DUP4 CALLDATACOPY DUP1 DUP3 ADD SWAP2 POP POP SWAP1 POP JUMPDEST POP SWAP1 POP PUSH1 0x0 DUP1 SLOAD PUSH8 0xFFFFFFFFFFFFFFFF DUP2 GT ISZERO PUSH2 0x39A JUMPI PUSH2 0x399 PUSH2 0x223A JUMP JUMPDEST JUMPDEST PUSH1 0x40 MLOAD SWAP1 DUP1 DUP3 MSTORE DUP1 PUSH1 0x20 MUL PUSH1 0x20 ADD DUP3 ADD PUSH1 0x40 MSTORE DUP1 ISZERO PUSH2 0x3C8 JUMPI DUP2 PUSH1 0x20 ADD PUSH1 0x20 DUP3 MUL DUP1 CALLDATASIZE DUP4 CALLDATACOPY DUP1 DUP3 ADD SWAP2 POP POP SWAP1 POP JUMPDEST POP SWAP1 POP PUSH1 0x0 DUP1 SLOAD PUSH8 0xFFFFFFFFFFFFFFFF DUP2 GT ISZERO PUSH2 0x3E8 JUMPI PUSH2 0x3E7 PUSH2 0x223A JUMP JUMPDEST JUMPDEST PUSH1 0x40 MLOAD SWAP1 DUP1 DUP3 MSTORE DUP1 PUSH1 0x20 MUL PUSH1 0x20 ADD DUP3 ADD PUSH1 0x40 MSTORE DUP1 ISZERO PUSH2 0x41B JUMPI DUP2 PUSH1 0x20 ADD JUMPDEST PUSH1 0x60 DUP2 MSTORE PUSH1 0x20 ADD SWAP1 PUSH1 0x1 SWAP1 SUB SWAP1 DUP2 PUSH2 0x406 JUMPI SWAP1 POP JUMPDEST POP SWAP1 POP PUSH1 0x0 DUP1 SLOAD PUSH8 0xFFFFFFFFFFFFFFFF DUP2 GT ISZERO PUSH2 0x43B JUMPI PUSH2 0x43A PUSH2 0x223A JUMP JUMPDEST JUMPDEST PUSH1 0x40 MLOAD SWAP1 DUP1 DUP3 MSTORE DUP1 PUSH1 0x20 MUL PUSH1 0x20 ADD DUP3 ADD PUSH1 0x40 MSTORE DUP1 ISZERO PUSH2 0x46E JUMPI DUP2 PUSH1 0x20 ADD JUMPDEST PUSH1 0x60 DUP2 MSTORE PUSH1 0x20 ADD SWAP1 PUSH1 0x1 SWAP1 SUB SWAP1 DUP2 PUSH2 0x459 JUMPI SWAP1 POP JUMPDEST POP SWAP1 POP PUSH1 0x0 JUMPDEST PUSH1 0x0 SLOAD DUP2 LT ISZERO PUSH2 0xA73 JUMPI PUSH1 0x3 PUSH1 0x0 DUP3 DUP2 MSTORE PUSH1 0x20 ADD SWAP1 DUP2 MSTORE PUSH1 0x20 ADD PUSH1 0x0 KECCAK256 PUSH1 0x0 ADD PUSH1 0x0 SWAP1 SLOAD SWAP1 PUSH2 0x100 EXP SWAP1 DIV PUSH20 0xFFFFFFFFFFFFFFFFFFFFFFFFFFFFFFFFFFFFFFFF AND DUP12 DUP3 DUP2 MLOAD DUP2 LT PUSH2 0x4C8 JUMPI PUSH2 0x4C7 PUSH2 0x220B JUMP JUMPDEST JUMPDEST PUSH1 0x20 MUL PUSH1 0x20 ADD ADD SWAP1 PUSH20 0xFFFFFFFFFFFFFFFFFFFFFFFFFFFFFFFFFFFFFFFF AND SWAP1 DUP2 PUSH20 0xFFFFFFFFFFFFFFFFFFFFFFFFFFFFFFFFFFFFFFFF AND DUP2 MSTORE POP POP PUSH1 0x3 PUSH1 0x0 DUP3 DUP2 MSTORE PUSH1 0x20 ADD SWAP1 DUP2 MSTORE PUSH1 0x20 ADD PUSH1 0x0 KECCAK256 PUSH1 0x1 ADD DUP1 SLOAD PUSH2 0x523 SWAP1 PUSH2 0x2101 JUMP JUMPDEST DUP1 PUSH1 0x1F ADD PUSH1 0x20 DUP1 SWAP2 DIV MUL PUSH1 0x20 ADD PUSH1 0x40 MLOAD SWAP1 DUP2 ADD PUSH1 0x40 MSTORE DUP1 SWAP3 SWAP2 SWAP1 DUP2 DUP2 MSTORE PUSH1 0x20 ADD DUP3 DUP1 SLOAD PUSH2 0x54F SWAP1 PUSH2 0x2101 JUMP JUMPDEST DUP1 ISZERO PUSH2 0x59C JUMPI DUP1 PUSH1 0x1F LT PUSH2 0x571 JUMPI PUSH2 0x100 DUP1 DUP4 SLOAD DIV MUL DUP4 MSTORE SWAP2 PUSH1 0x20 ADD SWAP2 PUSH2 0x59C JUMP JUMPDEST DUP3 ADD SWAP2 SWAP1 PUSH1 0x0 MSTORE PUSH1 0x20 PUSH1 0x0 KECCAK256 SWAP1 JUMPDEST DUP2 SLOAD DUP2 MSTORE SWAP1 PUSH1 0x1 ADD SWAP1 PUSH1 0x20 ADD DUP1 DUP4 GT PUSH2 0x57F JUMPI DUP3 SWAP1 SUB PUSH1 0x1F AND DUP3 ADD SWAP2 JUMPDEST POP POP POP POP POP DUP11 DUP3 DUP2 MLOAD DUP2 LT PUSH2 0x5B4 JUMPI PUSH2 0x5B3 PUSH2 0x220B JUMP JUMPDEST JUMPDEST PUSH1 0x20 MUL PUSH1 0x20 ADD ADD DUP2 SWAP1 MSTORE POP PUSH1 0x3 PUSH1 0x0 DUP3 DUP2 MSTORE PUSH1 0x20 ADD SWAP1 DUP2 MSTORE PUSH1 0x20 ADD PUSH1 0x0 KECCAK256 PUSH1 0x2 ADD DUP1 SLOAD PUSH2 0x5E0 SWAP1 PUSH2 0x2101 JUMP JUMPDEST DUP1 PUSH1 0x1F ADD PUSH1 0x20 DUP1 SWAP2 DIV MUL PUSH1 0x20 ADD PUSH1 0x40 MLOAD SWAP1 DUP2 ADD PUSH1 0x40 MSTORE DUP1 SWAP3 SWAP2 SWAP1 DUP2 DUP2 MSTORE PUSH1 0x20 ADD DUP3 DUP1 SLOAD PUSH2 0x60C SWAP1 PUSH2 0x2101 JUMP JUMPDEST DUP1 ISZERO PUSH2 0x659 JUMPI DUP1 PUSH1 0x1F LT PUSH2 0x62E JUMPI PUSH2 0x100 DUP1 DUP4 SLOAD DIV MUL DUP4 MSTORE SWAP2 PUSH1 0x20 ADD SWAP2 PUSH2 0x659 JUMP JUMPDEST DUP3 ADD SWAP2 SWAP1 PUSH1 0x0 MSTORE PUSH1 0x20 PUSH1 0x0 KECCAK256 SWAP1 JUMPDEST DUP2 SLOAD DUP2 MSTORE SWAP1 PUSH1 0x1 ADD SWAP1 PUSH1 0x20 ADD DUP1 DUP4 GT PUSH2 0x63C JUMPI DUP3 SWAP1 SUB PUSH1 0x1F AND DUP3 ADD SWAP2 JUMPDEST POP POP POP POP POP DUP10 DUP3 DUP2 MLOAD DUP2 LT PUSH2 0x671 JUMPI PUSH2 0x670 PUSH2 0x220B JUMP JUMPDEST JUMPDEST PUSH1 0x20 MUL PUSH1 0x20 ADD ADD DUP2 SWAP1 MSTORE POP PUSH1 0x3 PUSH1 0x0 DUP3 DUP2 MSTORE PUSH1 0x20 ADD SWAP1 DUP2 MSTORE PUSH1 0x20 ADD PUSH1 0x0 KECCAK256 PUSH1 0x3 ADD SLOAD DUP9 DUP3 DUP2 MLOAD DUP2 LT PUSH2 0x6A6 JUMPI PUSH2 0x6A5 PUSH2 0x220B JUMP JUMPDEST JUMPDEST PUSH1 0x20 MUL PUSH1 0x20 ADD ADD DUP2 DUP2 MSTORE POP POP PUSH1 0x3 PUSH1 0x0 DUP3 DUP2 MSTORE PUSH1 0x20 ADD SWAP1 DUP2 MSTORE PUSH1 0x20 ADD PUSH1 0x0 KECCAK256 PUSH1 0x4 ADD SLOAD DUP8 DUP3 DUP2 MLOAD DUP2 LT PUSH2 0x6DC JUMPI PUSH2 0x6DB PUSH2 0x220B JUMP JUMPDEST JUMPDEST PUSH1 0x20 MUL PUSH1 0x20 ADD ADD DUP2 DUP2 MSTORE POP POP PUSH1 0x3 PUSH1 0x0 DUP3 DUP2 MSTORE PUSH1 0x20 ADD SWAP1 DUP2 MSTORE PUSH1 0x20 ADD PUSH1 0x0 KECCAK256 PUSH1 0x5 ADD SLOAD DUP7 DUP3 DUP2 MLOAD DUP2 LT PUSH2 0x712 JUMPI PUSH2 0x711 PUSH2 0x220B JUMP JUMPDEST JUMPDEST PUSH1 0x20 MUL PUSH1 0x20 ADD ADD DUP2 DUP2 MSTORE POP POP DUP1 DUP6 DUP3 DUP2 MLOAD DUP2 LT PUSH2 0x732 JUMPI PUSH2 0x731 PUSH2 0x220B JUMP JUMPDEST JUMPDEST PUSH1 0x20 MUL PUSH1 0x20 ADD ADD DUP2 DUP2 MSTORE POP POP PUSH1 0x3 PUSH1 0x0 DUP3 DUP2 MSTORE PUSH1 0x20 ADD SWAP1 DUP2 MSTORE PUSH1 0x20 ADD PUSH1 0x0 KECCAK256 PUSH1 0x9 ADD PUSH1 0x0 CALLER PUSH20 0xFFFFFFFFFFFFFFFFFFFFFFFFFFFFFFFFFFFFFFFF AND PUSH20 0xFFFFFFFFFFFFFFFFFFFFFFFFFFFFFFFFFFFFFFFF AND DUP2 MSTORE PUSH1 0x20 ADD SWAP1 DUP2 MSTORE PUSH1 0x20 ADD PUSH1 0x0 KECCAK256 SLOAD DUP5 DUP3 DUP2 MLOAD DUP2 LT PUSH2 0x7A5 JUMPI PUSH2 0x7A4 PUSH2 0x220B JUMP JUMPDEST JUMPDEST PUSH1 0x20 MUL PUSH1 0x20 ADD ADD DUP2 DUP2 MSTORE POP POP PUSH1 0x0 PUSH1 0x3 PUSH1 0x0 DUP4 DUP2 MSTORE PUSH1 0x20 ADD SWAP1 DUP2 MSTORE PUSH1 0x20 ADD PUSH1 0x0 KECCAK256 PUSH1 0x6 ADD SLOAD SWAP1 POP PUSH1 0x0 DUP2 PUSH8 0xFFFFFFFFFFFFFFFF DUP2 GT ISZERO PUSH2 0x7E8 JUMPI PUSH2 0x7E7 PUSH2 0x223A JUMP JUMPDEST JUMPDEST PUSH1 0x40 MLOAD SWAP1 DUP1 DUP3 MSTORE DUP1 PUSH1 0x20 MUL PUSH1 0x20 ADD DUP3 ADD PUSH1 0x40 MSTORE DUP1 ISZERO PUSH2 0x816 JUMPI DUP2 PUSH1 0x20 ADD PUSH1 0x20 DUP3 MUL DUP1 CALLDATASIZE DUP4 CALLDATACOPY DUP1 DUP3 ADD SWAP2 POP POP SWAP1 POP JUMPDEST POP SWAP1 POP PUSH1 0x0 JUMPDEST DUP3 DUP2 LT ISZERO PUSH2 0x93A JUMPI PUSH1 0x0 PUSH1 0x3 PUSH1 0x0 DUP7 DUP2 MSTORE PUSH1 0x20 ADD SWAP1 DUP2 MSTORE PUSH1 0x20 ADD PUSH1 0x0 KECCAK256 PUSH1 0x7 ADD PUSH1 0x0 PUSH1 0x1 DUP5 PUSH2 0x84B SWAP2 SWAP1 PUSH2 0x202D JUMP JUMPDEST DUP2 MSTORE PUSH1 0x20 ADD SWAP1 DUP2 MSTORE PUSH1 0x20 ADD PUSH1 0x0 KECCAK256 PUSH1 0x40 MLOAD DUP1 PUSH1 0x40 ADD PUSH1 0x40 MSTORE SWAP1 DUP2 PUSH1 0x0 DUP3 ADD DUP1 SLOAD PUSH2 0x874 SWAP1 PUSH2 0x2101 JUMP JUMPDEST DUP1 PUSH1 0x1F ADD PUSH1 0x20 DUP1 SWAP2 DIV MUL PUSH1 0x20 ADD PUSH1 0x40 MLOAD SWAP1 DUP2 ADD PUSH1 0x40 MSTORE DUP1 SWAP3 SWAP2 SWAP1 DUP2 DUP2 MSTORE PUSH1 0x20 ADD DUP3 DUP1 SLOAD PUSH2 0x8A0 SWAP1 PUSH2 0x2101 JUMP JUMPDEST DUP1 ISZERO PUSH2 0x8ED JUMPI DUP1 PUSH1 0x1F LT PUSH2 0x8C2 JUMPI PUSH2 0x100 DUP1 DUP4 SLOAD DIV MUL DUP4 MSTORE SWAP2 PUSH1 0x20 ADD SWAP2 PUSH2 0x8ED JUMP JUMPDEST DUP3 ADD SWAP2 SWAP1 PUSH1 0x0 MSTORE PUSH1 0x20 PUSH1 0x0 KECCAK256 SWAP1 JUMPDEST DUP2 SLOAD DUP2 MSTORE SWAP1 PUSH1 0x1 ADD SWAP1 PUSH1 0x20 ADD DUP1 DUP4 GT PUSH2 0x8D0 JUMPI DUP3 SWAP1 SUB PUSH1 0x1F AND DUP3 ADD SWAP2 JUMPDEST POP POP POP POP POP DUP2 MSTORE PUSH1 0x20 ADD PUSH1 0x1 DUP3 ADD SLOAD DUP2 MSTORE POP POP SWAP1 POP DUP1 PUSH1 0x20 ADD MLOAD DUP4 DUP4 DUP2 MLOAD DUP2 LT PUSH2 0x91A JUMPI PUSH2 0x919 PUSH2 0x220B JUMP JUMPDEST JUMPDEST PUSH1 0x20 MUL PUSH1 0x20 ADD ADD DUP2 DUP2 MSTORE POP POP POP DUP1 DUP1 PUSH2 0x932 SWAP1 PUSH2 0x2164 JUMP JUMPDEST SWAP2 POP POP PUSH2 0x81C JUMP JUMPDEST POP PUSH1 0x3 PUSH1 0x0 DUP5 DUP2 MSTORE PUSH1 0x20 ADD SWAP1 DUP2 MSTORE PUSH1 0x20 ADD PUSH1 0x0 KECCAK256 PUSH1 0x8 ADD DUP1 SLOAD DUP1 PUSH1 0x20 MUL PUSH1 0x20 ADD PUSH1 0x40 MLOAD SWAP1 DUP2 ADD PUSH1 0x40 MSTORE DUP1 SWAP3 SWAP2 SWAP1 DUP2 DUP2 MSTORE PUSH1 0x20 ADD PUSH1 0x0 SWAP1 JUMPDEST DUP3 DUP3 LT ISZERO PUSH2 0xA1D JUMPI DUP4 DUP3 SWAP1 PUSH1 0x0 MSTORE PUSH1 0x20 PUSH1 0x0 KECCAK256 ADD DUP1 SLOAD PUSH2 0x990 SWAP1 PUSH2 0x2101 JUMP JUMPDEST DUP1 PUSH1 0x1F ADD PUSH1 0x20 DUP1 SWAP2 DIV MUL PUSH1 0x20 ADD PUSH1 0x40 MLOAD SWAP1 DUP2 ADD PUSH1 0x40 MSTORE DUP1 SWAP3 SWAP2 SWAP1 DUP2 DUP2 MSTORE PUSH1 0x20 ADD DUP3 DUP1 SLOAD PUSH2 0x9BC SWAP1 PUSH2 0x2101 JUMP JUMPDEST DUP1 ISZERO PUSH2 0xA09 JUMPI DUP1 PUSH1 0x1F LT PUSH2 0x9DE JUMPI PUSH2 0x100 DUP1 DUP4 SLOAD DIV MUL DUP4 MSTORE SWAP2 PUSH1 0x20 ADD SWAP2 PUSH2 0xA09 JUMP JUMPDEST DUP3 ADD SWAP2 SWAP1 PUSH1 0x0 MSTORE PUSH1 0x20 PUSH1 0x0 KECCAK256 SWAP1 JUMPDEST DUP2 SLOAD DUP2 MSTORE SWAP1 PUSH1 0x1 ADD SWAP1 PUSH1 0x20 ADD DUP1 DUP4 GT PUSH2 0x9EC JUMPI DUP3 SWAP1 SUB PUSH1 0x1F AND DUP3 ADD SWAP2 JUMPDEST POP POP POP POP POP DUP2 MSTORE PUSH1 0x20 ADD SWAP1 PUSH1 0x1 ADD SWAP1 PUSH2 0x971 JUMP JUMPDEST POP POP POP POP DUP6 DUP5 DUP2 MLOAD DUP2 LT PUSH2 0xA34 JUMPI PUSH2 0xA33 PUSH2 0x220B JUMP JUMPDEST JUMPDEST PUSH1 0x20 MUL PUSH1 0x20 ADD ADD DUP2 SWAP1 MSTORE POP DUP1 DUP5 DUP5 DUP2 MLOAD DUP2 LT PUSH2 0xA53 JUMPI PUSH2 0xA52 PUSH2 0x220B JUMP JUMPDEST JUMPDEST PUSH1 0x20 MUL PUSH1 0x20 ADD ADD DUP2 SWAP1 MSTORE POP POP POP DUP1 DUP1 PUSH2 0xA6B SWAP1 PUSH2 0x2164 JUMP JUMPDEST SWAP2 POP POP PUSH2 0x474 JUMP JUMPDEST POP PUSH1 0x40 MLOAD DUP1 PUSH2 0x140 ADD PUSH1 0x40 MSTORE DUP1 DUP12 DUP2 MSTORE PUSH1 0x20 ADD DUP11 DUP2 MSTORE PUSH1 0x20 ADD DUP10 DUP2 MSTORE PUSH1 0x20 ADD DUP9 DUP2 MSTORE PUSH1 0x20 ADD DUP8 DUP2 MSTORE PUSH1 0x20 ADD DUP7 DUP2 MSTORE PUSH1 0x20 ADD DUP6 DUP2 MSTORE PUSH1 0x20 ADD DUP4 DUP2 MSTORE PUSH1 0x20 ADD DUP3 DUP2 MSTORE PUSH1 0x20 ADD DUP5 DUP2 MSTORE POP SWAP11 POP POP POP POP POP POP POP POP POP POP POP SWAP1 JUMP JUMPDEST PUSH2 0xAD2 DUP2 PUSH2 0x1242 JUMP JUMPDEST PUSH2 0xADB JUMPI PUSH1 0x0 DUP1 REVERT JUMPDEST DUP1 PUSH1 0x1 PUSH1 0x0 CALLER PUSH20 0xFFFFFFFFFFFFFFFFFFFFFFFFFFFFFFFFFFFFFFFF AND PUSH20 0xFFFFFFFFFFFFFFFFFFFFFFFFFFFFFFFFFFFFFFFF AND DUP2 MSTORE PUSH1 0x20 ADD SWAP1 DUP2 MSTORE PUSH1 0x20 ADD PUSH1 0x0 KECCAK256 SWAP1 DUP1 MLOAD SWAP1 PUSH1 0x20 ADD SWAP1 PUSH2 0xB2E SWAP3 SWAP2 SWAP1 PUSH2 0x12A4 JUMP JUMPDEST POP CALLER PUSH1 0x2 DUP3 PUSH1 0x40 MLOAD PUSH2 0xB40 SWAP2 SWAP1 PUSH2 0x1C7C JUMP JUMPDEST SWAP1 DUP2 MSTORE PUSH1 0x20 ADD PUSH1 0x40 MLOAD DUP1 SWAP2 SUB SWAP1 KECCAK256 PUSH1 0x0 PUSH2 0x100 EXP DUP2 SLOAD DUP2 PUSH20 0xFFFFFFFFFFFFFFFFFFFFFFFFFFFFFFFFFFFFFFFF MUL NOT AND SWAP1 DUP4 PUSH20 0xFFFFFFFFFFFFFFFFFFFFFFFFFFFFFFFFFFFFFFFF AND MUL OR SWAP1 SSTORE POP POP JUMP JUMPDEST PUSH1 0x60 PUSH1 0x1 PUSH1 0x0 CALLER PUSH20 0xFFFFFFFFFFFFFFFFFFFFFFFFFFFFFFFFFFFFFFFF AND PUSH20 0xFFFFFFFFFFFFFFFFFFFFFFFFFFFFFFFFFFFFFFFF AND DUP2 MSTORE PUSH1 0x20 ADD SWAP1 DUP2 MSTORE PUSH1 0x20 ADD PUSH1 0x0 KECCAK256 DUP1 SLOAD PUSH2 0xBDB SWAP1 PUSH2 0x2101 JUMP JUMPDEST DUP1 PUSH1 0x1F ADD PUSH1 0x20 DUP1 SWAP2 DIV MUL PUSH1 0x20 ADD PUSH1 0x40 MLOAD SWAP1 DUP2 ADD PUSH1 0x40 MSTORE DUP1 SWAP3 SWAP2 SWAP1 DUP2 DUP2 MSTORE PUSH1 0x20 ADD DUP3 DUP1 SLOAD PUSH2 0xC07 SWAP1 PUSH2 0x2101 JUMP JUMPDEST DUP1 ISZERO PUSH2 0xC54 JUMPI DUP1 PUSH1 0x1F LT PUSH2 0xC29 JUMPI PUSH2 0x100 DUP1 DUP4 SLOAD DIV MUL DUP4 MSTORE SWAP2 PUSH1 0x20 ADD SWAP2 PUSH2 0xC54 JUMP JUMPDEST DUP3 ADD SWAP2 SWAP1 PUSH1 0x0 MSTORE PUSH1 0x20 PUSH1 0x0 KECCAK256 SWAP1 JUMPDEST DUP2 SLOAD DUP2 MSTORE SWAP1 PUSH1 0x1 ADD SWAP1 PUSH1 0x20 ADD DUP1 DUP4 GT PUSH2 0xC37 JUMPI DUP3 SWAP1 SUB PUSH1 0x1F AND DUP3 ADD SWAP2 JUMPDEST POP POP POP POP POP SWAP1 POP SWAP1 JUMP JUMPDEST PUSH1 0x4 PUSH1 0x0 SWAP1 SLOAD SWAP1 PUSH2 0x100 EXP SWAP1 DIV PUSH20 0xFFFFFFFFFFFFFFFFFFFFFFFFFFFFFFFFFFFFFFFF AND DUP2 JUMP JUMPDEST PUSH2 0xC8D DUP7 PUSH2 0x1242 JUMP JUMPDEST DUP1 ISZERO PUSH2 0xC9E JUMPI POP PUSH2 0xC9D DUP6 PUSH2 0x1242 JUMP JUMPDEST JUMPDEST PUSH2 0xCA7 JUMPI PUSH1 0x0 DUP1 REVERT JUMPDEST DUP4 DUP4 LT ISZERO PUSH2 0xCB4 JUMPI PUSH1 0x0 DUP1 REVERT JUMPDEST PUSH1 0x2 DUP2 MLOAD LT ISZERO PUSH2 0xCC3 JUMPI PUSH1 0x0 DUP1 REVERT JUMPDEST PUSH1 0x0 JUMPDEST DUP2 MLOAD DUP2 LT ISZERO PUSH2 0xD0E JUMPI PUSH2 0xCF2 DUP3 DUP3 DUP2 MLOAD DUP2 LT PUSH2 0xCE5 JUMPI PUSH2 0xCE4 PUSH2 0x220B JUMP JUMPDEST JUMPDEST PUSH1 0x20 MUL PUSH1 0x20 ADD ADD MLOAD PUSH2 0x1242 JUMP JUMPDEST PUSH2 0xCFB JUMPI PUSH1 0x0 DUP1 REVERT JUMPDEST DUP1 DUP1 PUSH2 0xD06 SWAP1 PUSH2 0x2164 JUMP JUMPDEST SWAP2 POP POP PUSH2 0xCC6 JUMP JUMPDEST POP PUSH1 0x0 PUSH1 0x3 PUSH1 0x0 DUP1 SLOAD DUP2 MSTORE PUSH1 0x20 ADD SWAP1 DUP2 MSTORE PUSH1 0x20 ADD PUSH1 0x0 KECCAK256 SWAP1 POP CALLER DUP2 PUSH1 0x0 ADD PUSH1 0x0 PUSH2 0x100 EXP DUP2 SLOAD DUP2 PUSH20 0xFFFFFFFFFFFFFFFFFFFFFFFFFFFFFFFFFFFFFFFF MUL NOT AND SWAP1 DUP4 PUSH20 0xFFFFFFFFFFFFFFFFFFFFFFFFFFFFFFFFFFFFFFFF AND MUL OR SWAP1 SSTORE POP DUP7 DUP2 PUSH1 0x1 ADD SWAP1 DUP1 MLOAD SWAP1 PUSH1 0x20 ADD SWAP1 PUSH2 0xD82 SWAP3 SWAP2 SWAP1 PUSH2 0x12A4 JUMP JUMPDEST POP DUP6 DUP2 PUSH1 0x2 ADD SWAP1 DUP1 MLOAD SWAP1 PUSH1 0x20 ADD SWAP1 PUSH2 0xD9B SWAP3 SWAP2 SWAP1 PUSH2 0x12A4 JUMP JUMPDEST POP DUP5 DUP2 PUSH1 0x3 ADD DUP2 SWAP1 SSTORE POP DUP4 DUP2 PUSH1 0x4 ADD DUP2 SWAP1 SSTORE POP DUP3 DUP2 PUSH1 0x5 ADD DUP2 SWAP1 SSTORE POP DUP2 MLOAD DUP2 PUSH1 0x6 ADD DUP2 SWAP1 SSTORE POP DUP2 DUP2 PUSH1 0x8 ADD SWAP1 DUP1 MLOAD SWAP1 PUSH1 0x20 ADD SWAP1 PUSH2 0xDD9 SWAP3 SWAP2 SWAP1 PUSH2 0x132A JUMP JUMPDEST POP PUSH1 0x0 JUMPDEST DUP3 MLOAD DUP2 LT ISZERO PUSH2 0xE56 JUMPI PUSH1 0x0 DUP3 PUSH1 0x7 ADD PUSH1 0x0 PUSH1 0x1 DUP6 PUSH1 0x6 ADD SLOAD PUSH2 0xDFF SWAP2 SWAP1 PUSH2 0x202D JUMP JUMPDEST DUP2 MSTORE PUSH1 0x20 ADD SWAP1 DUP2 MSTORE PUSH1 0x20 ADD PUSH1 0x0 KECCAK256 SWAP1 POP DUP4 DUP3 DUP2 MLOAD DUP2 LT PUSH2 0xE22 JUMPI PUSH2 0xE21 PUSH2 0x220B JUMP JUMPDEST JUMPDEST PUSH1 0x20 MUL PUSH1 0x20 ADD ADD MLOAD DUP2 PUSH1 0x0 ADD SWAP1 DUP1 MLOAD SWAP1 PUSH1 0x20 ADD SWAP1 PUSH2 0xE41 SWAP3 SWAP2 SWAP1 PUSH2 0x12A4 JUMP JUMPDEST POP POP DUP1 DUP1 PUSH2 0xE4E SWAP1 PUSH2 0x2164 JUMP JUMPDEST SWAP2 POP POP PUSH2 0xDDD JUMP JUMPDEST POP PUSH32 0xE944D8EA112591BD5E0E3C2DFD471875A6BF4E30F3EA9D4D975972168700EE20 PUSH1 0x0 SLOAD CALLER DUP10 DUP10 DUP10 DUP10 DUP10 DUP10 PUSH1 0x40 MLOAD PUSH2 0xE96 SWAP9 SWAP8 SWAP7 SWAP6 SWAP5 SWAP4 SWAP3 SWAP2 SWAP1 PUSH2 0x1DB2 JUMP JUMPDEST PUSH1 0x40 MLOAD DUP1 SWAP2 SUB SWAP1 LOG1 PUSH1 0x0 DUP1 DUP2 SLOAD DUP1 SWAP3 SWAP2 SWAP1 PUSH2 0xEB0 SWAP1 PUSH2 0x2164 JUMP JUMPDEST SWAP2 SWAP1 POP SSTORE POP POP POP POP POP POP POP POP JUMP JUMPDEST PUSH1 0x0 SLOAD DUP3 LT PUSH2 0xF02 JUMPI PUSH1 0x40 MLOAD PUSH32 0x8C379A000000000000000000000000000000000000000000000000000000000 DUP2 MSTORE PUSH1 0x4 ADD PUSH2 0xEF9 SWAP1 PUSH2 0x1D30 JUMP JUMPDEST PUSH1 0x40 MLOAD DUP1 SWAP2 SUB SWAP1 REVERT JUMPDEST PUSH1 0x3 PUSH1 0x0 DUP4 DUP2 MSTORE PUSH1 0x20 ADD SWAP1 DUP2 MSTORE PUSH1 0x20 ADD PUSH1 0x0 KECCAK256 PUSH1 0x6 ADD SLOAD DUP2 LT PUSH2 0xF5A JUMPI PUSH1 0x40 MLOAD PUSH32 0x8C379A000000000000000000000000000000000000000000000000000000000 DUP2 MSTORE PUSH1 0x4 ADD PUSH2 0xF51 SWAP1 PUSH2 0x1D70 JUMP JUMPDEST PUSH1 0x40 MLOAD DUP1 SWAP2 SUB SWAP1 REVERT JUMPDEST PUSH1 0x0 PUSH1 0x3 PUSH1 0x0 DUP5 DUP2 MSTORE PUSH1 0x20 ADD SWAP1 DUP2 MSTORE PUSH1 0x20 ADD PUSH1 0x0 KECCAK256 PUSH1 0x9 ADD PUSH1 0x0 CALLER PUSH20 0xFFFFFFFFFFFFFFFFFFFFFFFFFFFFFFFFFFFFFFFF AND PUSH20 0xFFFFFFFFFFFFFFFFFFFFFFFFFFFFFFFFFFFFFFFF AND DUP2 MSTORE PUSH1 0x20 ADD SWAP1 DUP2 MSTORE PUSH1 0x20 ADD PUSH1 0x0 KECCAK256 SLOAD EQ PUSH2 0xFF0 JUMPI PUSH1 0x40 MLOAD PUSH32 0x8C379A000000000000000000000000000000000000000000000000000000000 DUP2 MSTORE PUSH1 0x4 ADD PUSH2 0xFE7 SWAP1 PUSH2 0x1CF0 JUMP JUMPDEST PUSH1 0x40 MLOAD DUP1 SWAP2 SUB SWAP1 REVERT JUMPDEST TIMESTAMP PUSH1 0x3 PUSH1 0x0 DUP5 DUP2 MSTORE PUSH1 0x20 ADD SWAP1 DUP2 MSTORE PUSH1 0x20 ADD PUSH1 0x0 KECCAK256 PUSH1 0x3 ADD SLOAD GT ISZERO PUSH2 0x1049 JUMPI PUSH1 0x40 MLOAD PUSH32 0x8C379A000000000000000000000000000000000000000000000000000000000 DUP2 MSTORE PUSH1 0x4 ADD PUSH2 0x1040 SWAP1 PUSH2 0x1D10 JUMP JUMPDEST PUSH1 0x40 MLOAD DUP1 SWAP2 SUB SWAP1 REVERT JUMPDEST TIMESTAMP PUSH1 0x3 PUSH1 0x0 DUP5 DUP2 MSTORE PUSH1 0x20 ADD SWAP1 DUP2 MSTORE PUSH1 0x20 ADD PUSH1 0x0 KECCAK256 PUSH1 0x4 ADD SLOAD LT ISZERO PUSH2 0x10A2 JUMPI PUSH1 0x40 MLOAD PUSH32 0x8C379A000000000000000000000000000000000000000000000000000000000 DUP2 MSTORE PUSH1 0x4 ADD PUSH2 0x1099 SWAP1 PUSH2 0x1D50 JUMP JUMPDEST PUSH1 0x40 MLOAD DUP1 SWAP2 SUB SWAP1 REVERT JUMPDEST PUSH1 0x3 PUSH1 0x0 DUP4 DUP2 MSTORE PUSH1 0x20 ADD SWAP1 DUP2 MSTORE PUSH1 0x20 ADD PUSH1 0x0 KECCAK256 PUSH1 0x5 ADD SLOAD CALLVALUE LT ISZERO PUSH2 0x10FB JUMPI PUSH1 0x40 MLOAD PUSH32 0x8C379A000000000000000000000000000000000000000000000000000000000 DUP2 MSTORE PUSH1 0x4 ADD PUSH2 0x10F2 SWAP1 PUSH2 0x1CD0 JUMP JUMPDEST PUSH1 0x40 MLOAD DUP1 SWAP2 SUB SWAP1 REVERT JUMPDEST PUSH1 0x1 DUP2 PUSH2 0x1108 SWAP2 SWAP1 PUSH2 0x202D JUMP JUMPDEST PUSH1 0x3 PUSH1 0x0 DUP5 DUP2 MSTORE PUSH1 0x20 ADD SWAP1 DUP2 MSTORE PUSH1 0x20 ADD PUSH1 0x0 KECCAK256 PUSH1 0x9 ADD PUSH1 0x0 CALLER PUSH20 0xFFFFFFFFFFFFFFFFFFFFFFFFFFFFFFFFFFFFFFFF AND PUSH20 0xFFFFFFFFFFFFFFFFFFFFFFFFFFFFFFFFFFFFFFFF AND DUP2 MSTORE PUSH1 0x20 ADD SWAP1 DUP2 MSTORE PUSH1 0x20 ADD PUSH1 0x0 KECCAK256 DUP2 SWAP1 SSTORE POP PUSH1 0x3 PUSH1 0x0 DUP4 DUP2 MSTORE PUSH1 0x20 ADD SWAP1 DUP2 MSTORE PUSH1 0x20 ADD PUSH1 0x0 KECCAK256 PUSH1 0x7 ADD PUSH1 0x0 PUSH1 0x1 DUP4 PUSH2 0x1184 SWAP2 SWAP1 PUSH2 0x202D JUMP JUMPDEST DUP2 MSTORE PUSH1 0x20 ADD SWAP1 DUP2 MSTORE PUSH1 0x20 ADD PUSH1 0x0 KECCAK256 PUSH1 0x1 ADD PUSH1 0x0 DUP2 SLOAD DUP1 SWAP3 SWAP2 SWAP1 PUSH2 0x11A6 SWAP1 PUSH2 0x2164 JUMP JUMPDEST SWAP2 SWAP1 POP SSTORE POP PUSH1 0x3 PUSH1 0x0 DUP4 DUP2 MSTORE PUSH1 0x20 ADD SWAP1 DUP2 MSTORE PUSH1 0x20 ADD PUSH1 0x0 KECCAK256 PUSH1 0x0 ADD PUSH1 0x0 SWAP1 SLOAD SWAP1 PUSH2 0x100 EXP SWAP1 DIV PUSH20 0xFFFFFFFFFFFFFFFFFFFFFFFFFFFFFFFFFFFFFFFF AND PUSH20 0xFFFFFFFFFFFFFFFFFFFFFFFFFFFFFFFFFFFFFFFF AND PUSH2 0x8FC PUSH1 0x3 PUSH1 0x0 DUP6 DUP2 MSTORE PUSH1 0x20 ADD SWAP1 DUP2 MSTORE PUSH1 0x20 ADD PUSH1 0x0 KECCAK256 PUSH1 0x5 ADD SLOAD SWAP1 DUP2 ISZERO MUL SWAP1 PUSH1 0x40 MLOAD PUSH1 0x0 PUSH1 0x40 MLOAD DUP1 DUP4 SUB DUP2 DUP6 DUP9 DUP9 CALL SWAP4 POP POP POP POP ISZERO DUP1 ISZERO PUSH2 0x123D JUMPI RETURNDATASIZE PUSH1 0x0 DUP1 RETURNDATACOPY RETURNDATASIZE PUSH1 0x0 REVERT JUMPDEST POP POP POP JUMP JUMPDEST PUSH1 0x0 PUSH1 0x1 DUP3 MLOAD LT ISZERO SWAP1 POP SWAP2 SWAP1 POP JUMP JUMPDEST PUSH1 0x40 MLOAD DUP1 PUSH2 0x140 ADD PUSH1 0x40 MSTORE DUP1 PUSH1 0x60 DUP2 MSTORE PUSH1 0x20 ADD PUSH1 0x60 DUP2 MSTORE PUSH1 0x20 ADD PUSH1 0x60 DUP2 MSTORE PUSH1 0x20 ADD PUSH1 0x60 DUP2 MSTORE PUSH1 0x20 ADD PUSH1 0x60 DUP2 MSTORE PUSH1 0x20 ADD PUSH1 0x60 DUP2 MSTORE PUSH1 0x20 ADD PUSH1 0x60 DUP2 MSTORE PUSH1 0x20 ADD PUSH1 0x60 DUP2 MSTORE PUSH1 0x20 ADD PUSH1 0x60 DUP2 MSTORE PUSH1 0x20 ADD PUSH1 0x60 DUP2 MSTORE POP SWAP1 JUMP JUMPDEST DUP3 DUP1 SLOAD PUSH2 0x12B0 SWAP1 PUSH2 0x2101 JUMP JUMPDEST SWAP1 PUSH1 0x0 MSTORE PUSH1 0x20 PUSH1 0x0 KECCAK256 SWAP1 PUSH1 0x1F ADD PUSH1 0x20 SWAP1 DIV DUP2 ADD SWAP3 DUP3 PUSH2 0x12D2 JUMPI PUSH1 0x0 DUP6 SSTORE PUSH2 0x1319 JUMP JUMPDEST DUP3 PUSH1 0x1F LT PUSH2 0x12EB JUMPI DUP1 MLOAD PUSH1 0xFF NOT AND DUP4 DUP1 ADD OR DUP6 SSTORE PUSH2 0x1319 JUMP JUMPDEST DUP3 DUP1 ADD PUSH1 0x1 ADD DUP6 SSTORE DUP3 ISZERO PUSH2 0x1319 JUMPI SWAP2 DUP3 ADD JUMPDEST DUP3 DUP2 GT ISZERO PUSH2 0x1318 JUMPI DUP3 MLOAD DUP3 SSTORE SWAP2 PUSH1 0x20 ADD SWAP2 SWAP1 PUSH1 0x1 ADD SWAP1 PUSH2 0x12FD JUMP JUMPDEST JUMPDEST POP SWAP1 POP PUSH2 0x1326 SWAP2 SWAP1 PUSH2 0x138A JUMP JUMPDEST POP SWAP1 JUMP JUMPDEST DUP3 DUP1 SLOAD DUP3 DUP3 SSTORE SWAP1 PUSH1 0x0 MSTORE PUSH1 0x20 PUSH1 0x0 KECCAK256 SWAP1 DUP2 ADD SWAP3 DUP3 ISZERO PUSH2 0x1379 JUMPI SWAP2 PUSH1 0x20 MUL DUP3 ADD JUMPDEST DUP3 DUP2 GT ISZERO PUSH2 0x1378 JUMPI DUP3 MLOAD DUP3 SWAP1 DUP1 MLOAD SWAP1 PUSH1 0x20 ADD SWAP1 PUSH2 0x1368 SWAP3 SWAP2 SWAP1 PUSH2 0x12A4 JUMP JUMPDEST POP SWAP2 PUSH1 0x20 ADD SWAP2 SWAP1 PUSH1 0x1 ADD SWAP1 PUSH2 0x134A JUMP JUMPDEST JUMPDEST POP SWAP1 POP PUSH2 0x1386 SWAP2 SWAP1 PUSH2 0x13A7 JUMP JUMPDEST POP SWAP1 JUMP JUMPDEST JUMPDEST DUP1 DUP3 GT ISZERO PUSH2 0x13A3 JUMPI PUSH1 0x0 DUP2 PUSH1 0x0 SWAP1 SSTORE POP PUSH1 0x1 ADD PUSH2 0x138B JUMP JUMPDEST POP SWAP1 JUMP JUMPDEST JUMPDEST DUP1 DUP3 GT ISZERO PUSH2 0x13C7 JUMPI PUSH1 0x0 DUP2 DUP2 PUSH2 0x13BE SWAP2 SWAP1 PUSH2 0x13CB JUMP JUMPDEST POP PUSH1 0x1 ADD PUSH2 0x13A8 JUMP JUMPDEST POP SWAP1 JUMP JUMPDEST POP DUP1 SLOAD PUSH2 0x13D7 SWAP1 PUSH2 0x2101 JUMP JUMPDEST PUSH1 0x0 DUP3 SSTORE DUP1 PUSH1 0x1F LT PUSH2 0x13E9 JUMPI POP PUSH2 0x1408 JUMP JUMPDEST PUSH1 0x1F ADD PUSH1 0x20 SWAP1 DIV SWAP1 PUSH1 0x0 MSTORE PUSH1 0x20 PUSH1 0x0 KECCAK256 SWAP1 DUP2 ADD SWAP1 PUSH2 0x1407 SWAP2 SWAP1 PUSH2 0x138A JUMP JUMPDEST JUMPDEST POP JUMP JUMPDEST PUSH1 0x0 PUSH2 0x141E PUSH2 0x1419 DUP5 PUSH2 0x1E6A JUMP JUMPDEST PUSH2 0x1E45 JUMP JUMPDEST SWAP1 POP DUP1 DUP4 DUP3 MSTORE PUSH1 0x20 DUP3 ADD SWAP1 POP DUP3 DUP6 PUSH1 0x20 DUP7 MUL DUP3 ADD GT ISZERO PUSH2 0x1441 JUMPI PUSH2 0x1440 PUSH2 0x226E JUMP JUMPDEST JUMPDEST PUSH1 0x0 JUMPDEST DUP6 DUP2 LT ISZERO PUSH2 0x148F JUMPI DUP2 CALLDATALOAD PUSH8 0xFFFFFFFFFFFFFFFF DUP2 GT ISZERO PUSH2 0x1467 JUMPI PUSH2 0x1466 PUSH2 0x2269 JUMP JUMPDEST JUMPDEST DUP1 DUP7 ADD PUSH2 0x1474 DUP10 DUP3 PUSH2 0x1509 JUMP JUMPDEST DUP6 MSTORE PUSH1 0x20 DUP6 ADD SWAP5 POP PUSH1 0x20 DUP5 ADD SWAP4 POP POP POP PUSH1 0x1 DUP2 ADD SWAP1 POP PUSH2 0x1444 JUMP JUMPDEST POP POP POP SWAP4 SWAP3 POP POP POP JUMP JUMPDEST PUSH1 0x0 PUSH2 0x14AC PUSH2 0x14A7 DUP5 PUSH2 0x1E96 JUMP JUMPDEST PUSH2 0x1E45 JUMP JUMPDEST SWAP1 POP DUP3 DUP2 MSTORE PUSH1 0x20 DUP2 ADD DUP5 DUP5 DUP5 ADD GT ISZERO PUSH2 0x14C8 JUMPI PUSH2 0x14C7 PUSH2 0x2273 JUMP JUMPDEST JUMPDEST PUSH2 0x14D3 DUP5 DUP3 DUP6 PUSH2 0x20BF JUMP JUMPDEST POP SWAP4 SWAP3 POP POP POP JUMP JUMPDEST PUSH1 0x0 DUP3 PUSH1 0x1F DUP4 ADD SLT PUSH2 0x14F0 JUMPI PUSH2 0x14EF PUSH2 0x2269 JUMP JUMPDEST JUMPDEST DUP2 CALLDATALOAD PUSH2 0x1500 DUP5 DUP3 PUSH1 0x20 DUP7 ADD PUSH2 0x140B JUMP JUMPDEST SWAP2 POP POP SWAP3 SWAP2 POP POP JUMP JUMPDEST PUSH1 0x0 DUP3 PUSH1 0x1F DUP4 ADD SLT PUSH2 0x151E JUMPI PUSH2 0x151D PUSH2 0x2269 JUMP JUMPDEST JUMPDEST DUP2 CALLDATALOAD PUSH2 0x152E DUP5 DUP3 PUSH1 0x20 DUP7 ADD PUSH2 0x1499 JUMP JUMPDEST SWAP2 POP POP SWAP3 SWAP2 POP POP JUMP JUMPDEST PUSH1 0x0 DUP2 CALLDATALOAD SWAP1 POP PUSH2 0x1546 DUP2 PUSH2 0x23FB JUMP JUMPDEST SWAP3 SWAP2 POP POP JUMP JUMPDEST PUSH1 0x0 PUSH1 0x20 DUP3 DUP5 SUB SLT ISZERO PUSH2 0x1562 JUMPI PUSH2 0x1561 PUSH2 0x227D JUMP JUMPDEST JUMPDEST PUSH1 0x0 DUP3 ADD CALLDATALOAD PUSH8 0xFFFFFFFFFFFFFFFF DUP2 GT ISZERO PUSH2 0x1580 JUMPI PUSH2 0x157F PUSH2 0x2278 JUMP JUMPDEST JUMPDEST PUSH2 0x158C DUP5 DUP3 DUP6 ADD PUSH2 0x1509 JUMP JUMPDEST SWAP2 POP POP SWAP3 SWAP2 POP POP JUMP JUMPDEST PUSH1 0x0 DUP1 PUSH1 0x0 DUP1 PUSH1 0x0 DUP1 PUSH1 0xC0 DUP8 DUP10 SUB SLT ISZERO PUSH2 0x15B2 JUMPI PUSH2 0x15B1 PUSH2 0x227D JUMP JUMPDEST JUMPDEST PUSH1 0x0 DUP8 ADD CALLDATALOAD PUSH8 0xFFFFFFFFFFFFFFFF DUP2 GT ISZERO PUSH2 0x15D0 JUMPI PUSH2 0x15CF PUSH2 0x2278 JUMP JUMPDEST JUMPDEST PUSH2 0x15DC DUP10 DUP3 DUP11 ADD PUSH2 0x1509 JUMP JUMPDEST SWAP7 POP POP PUSH1 0x20 DUP8 ADD CALLDATALOAD PUSH8 0xFFFFFFFFFFFFFFFF DUP2 GT ISZERO PUSH2 0x15FD JUMPI PUSH2 0x15FC PUSH2 0x2278 JUMP JUMPDEST JUMPDEST PUSH2 0x1609 DUP10 DUP3 DUP11 ADD PUSH2 0x1509 JUMP JUMPDEST SWAP6 POP POP PUSH1 0x40 PUSH2 0x161A DUP10 DUP3 DUP11 ADD PUSH2 0x1537 JUMP JUMPDEST SWAP5 POP POP PUSH1 0x60 PUSH2 0x162B DUP10 DUP3 DUP11 ADD PUSH2 0x1537 JUMP JUMPDEST SWAP4 POP POP PUSH1 0x80 PUSH2 0x163C DUP10 DUP3 DUP11 ADD PUSH2 0x1537 JUMP JUMPDEST SWAP3 POP POP PUSH1 0xA0 DUP8 ADD CALLDATALOAD PUSH8 0xFFFFFFFFFFFFFFFF DUP2 GT ISZERO PUSH2 0x165D JUMPI PUSH2 0x165C PUSH2 0x2278 JUMP JUMPDEST JUMPDEST PUSH2 0x1669 DUP10 DUP3 DUP11 ADD PUSH2 0x14DB JUMP JUMPDEST SWAP2 POP POP SWAP3 SWAP6 POP SWAP3 SWAP6 POP SWAP3 SWAP6 JUMP JUMPDEST PUSH1 0x0 DUP1 PUSH1 0x40 DUP4 DUP6 SUB SLT ISZERO PUSH2 0x168D JUMPI PUSH2 0x168C PUSH2 0x227D JUMP JUMPDEST JUMPDEST PUSH1 0x0 PUSH2 0x169B DUP6 DUP3 DUP7 ADD PUSH2 0x1537 JUMP JUMPDEST SWAP3 POP POP PUSH1 0x20 PUSH2 0x16AC DUP6 DUP3 DUP7 ADD PUSH2 0x1537 JUMP JUMPDEST SWAP2 POP POP SWAP3 POP SWAP3 SWAP1 POP JUMP JUMPDEST PUSH1 0x0 PUSH2 0x16C2 DUP4 DUP4 PUSH2 0x1722 JUMP JUMPDEST PUSH1 0x20 DUP4 ADD SWAP1 POP SWAP3 SWAP2 POP POP JUMP JUMPDEST PUSH1 0x0 PUSH2 0x16DA DUP4 DUP4 PUSH2 0x1888 JUMP JUMPDEST SWAP1 POP SWAP3 SWAP2 POP POP JUMP JUMPDEST PUSH1 0x0 PUSH2 0x16EE DUP4 DUP4 PUSH2 0x1972 JUMP JUMPDEST SWAP1 POP SWAP3 SWAP2 POP POP JUMP JUMPDEST PUSH1 0x0 PUSH2 0x1702 DUP4 DUP4 PUSH2 0x19D0 JUMP JUMPDEST SWAP1 POP SWAP3 SWAP2 POP POP JUMP JUMPDEST PUSH1 0x0 PUSH2 0x1716 DUP4 DUP4 PUSH2 0x1C5E JUMP JUMPDEST PUSH1 0x20 DUP4 ADD SWAP1 POP SWAP3 SWAP2 POP POP JUMP JUMPDEST PUSH2 0x172B DUP2 PUSH2 0x2083 JUMP JUMPDEST DUP3 MSTORE POP POP JUMP JUMPDEST PUSH2 0x173A DUP2 PUSH2 0x2083 JUMP JUMPDEST DUP3 MSTORE POP POP JUMP JUMPDEST PUSH1 0x0 PUSH2 0x174B DUP3 PUSH2 0x1F17 JUMP JUMPDEST PUSH2 0x1755 DUP2 DUP6 PUSH2 0x1F9A JUMP JUMPDEST SWAP4 POP PUSH2 0x1760 DUP4 PUSH2 0x1EC7 JUMP JUMPDEST DUP1 PUSH1 0x0 JUMPDEST DUP4 DUP2 LT ISZERO PUSH2 0x1791 JUMPI DUP2 MLOAD PUSH2 0x1778 DUP9 DUP3 PUSH2 0x16B6 JUMP JUMPDEST SWAP8 POP PUSH2 0x1783 DUP4 PUSH2 0x1F59 JUMP JUMPDEST SWAP3 POP POP PUSH1 0x1 DUP2 ADD SWAP1 POP PUSH2 0x1764 JUMP JUMPDEST POP DUP6 SWAP4 POP POP POP POP SWAP3 SWAP2 POP POP JUMP JUMPDEST PUSH1 0x0 PUSH2 0x17A9 DUP3 PUSH2 0x1F22 JUMP JUMPDEST PUSH2 0x17B3 DUP2 DUP6 PUSH2 0x1FAB JUMP JUMPDEST SWAP4 POP DUP4 PUSH1 0x20 DUP3 MUL DUP6 ADD PUSH2 0x17C5 DUP6 PUSH2 0x1ED7 JUMP JUMPDEST DUP1 PUSH1 0x0 JUMPDEST DUP6 DUP2 LT ISZERO PUSH2 0x1801 JUMPI DUP5 DUP5 SUB DUP10 MSTORE DUP2 MLOAD PUSH2 0x17E2 DUP6 DUP3 PUSH2 0x16CE JUMP JUMPDEST SWAP5 POP PUSH2 0x17ED DUP4 PUSH2 0x1F66 JUMP JUMPDEST SWAP3 POP PUSH1 0x20 DUP11 ADD SWAP10 POP POP PUSH1 0x1 DUP2 ADD SWAP1 POP PUSH2 0x17C9 JUMP JUMPDEST POP DUP3 SWAP8 POP DUP8 SWAP6 POP POP POP POP POP POP SWAP3 SWAP2 POP POP JUMP JUMPDEST PUSH1 0x0 PUSH2 0x181E DUP3 PUSH2 0x1F2D JUMP JUMPDEST PUSH2 0x1828 DUP2 DUP6 PUSH2 0x1FBC JUMP JUMPDEST SWAP4 POP DUP4 PUSH1 0x20 DUP3 MUL DUP6 ADD PUSH2 0x183A DUP6 PUSH2 0x1EE7 JUMP JUMPDEST DUP1 PUSH1 0x0 JUMPDEST DUP6 DUP2 LT ISZERO PUSH2 0x1876 JUMPI DUP5 DUP5 SUB DUP10 MSTORE DUP2 MLOAD PUSH2 0x1857 DUP6 DUP3 PUSH2 0x16E2 JUMP JUMPDEST SWAP5 POP PUSH2 0x1862 DUP4 PUSH2 0x1F73 JUMP JUMPDEST SWAP3 POP PUSH1 0x20 DUP11 ADD SWAP10 POP POP PUSH1 0x1 DUP2 ADD SWAP1 POP PUSH2 0x183E JUMP JUMPDEST POP DUP3 SWAP8 POP DUP8 SWAP6 POP POP POP POP POP POP SWAP3 SWAP2 POP POP JUMP JUMPDEST PUSH1 0x0 PUSH2 0x1893 DUP3 PUSH2 0x1F38 JUMP JUMPDEST PUSH2 0x189D DUP2 DUP6 PUSH2 0x1FCD JUMP JUMPDEST SWAP4 POP DUP4 PUSH1 0x20 DUP3 MUL DUP6 ADD PUSH2 0x18AF DUP6 PUSH2 0x1EF7 JUMP JUMPDEST DUP1 PUSH1 0x0 JUMPDEST DUP6 DUP2 LT ISZERO PUSH2 0x18EB JUMPI DUP5 DUP5 SUB DUP10 MSTORE DUP2 MLOAD PUSH2 0x18CC DUP6 DUP3 PUSH2 0x16F6 JUMP JUMPDEST SWAP5 POP PUSH2 0x18D7 DUP4 PUSH2 0x1F80 JUMP JUMPDEST SWAP3 POP PUSH1 0x20 DUP11 ADD SWAP10 POP POP PUSH1 0x1 DUP2 ADD SWAP1 POP PUSH2 0x18B3 JUMP JUMPDEST POP DUP3 SWAP8 POP DUP8 SWAP6 POP POP POP POP POP POP SWAP3 SWAP2 POP POP JUMP JUMPDEST PUSH1 0x0 PUSH2 0x1908 DUP3 PUSH2 0x1F38 JUMP JUMPDEST PUSH2 0x1912 DUP2 DUP6 PUSH2 0x1FDE JUMP JUMPDEST SWAP4 POP DUP4 PUSH1 0x20 DUP3 MUL DUP6 ADD PUSH2 0x1924 DUP6 PUSH2 0x1EF7 JUMP JUMPDEST DUP1 PUSH1 0x0 JUMPDEST DUP6 DUP2 LT ISZERO PUSH2 0x1960 JUMPI DUP5 DUP5 SUB DUP10 MSTORE DUP2 MLOAD PUSH2 0x1941 DUP6 DUP3 PUSH2 0x16F6 JUMP JUMPDEST SWAP5 POP PUSH2 0x194C DUP4 PUSH2 0x1F80 JUMP JUMPDEST SWAP3 POP PUSH1 0x20 DUP11 ADD SWAP10 POP POP PUSH1 0x1 DUP2 ADD SWAP1 POP PUSH2 0x1928 JUMP JUMPDEST POP DUP3 SWAP8 POP DUP8 SWAP6 POP POP POP POP POP POP SWAP3 SWAP2 POP POP JUMP JUMPDEST PUSH1 0x0 PUSH2 0x197D DUP3 PUSH2 0x1F43 JUMP JUMPDEST PUSH2 0x1987 DUP2 DUP6 PUSH2 0x1FEF JUMP JUMPDEST SWAP4 POP PUSH2 0x1992 DUP4 PUSH2 0x1F07 JUMP JUMPDEST DUP1 PUSH1 0x0 JUMPDEST DUP4 DUP2 LT ISZERO PUSH2 0x19C3 JUMPI DUP2 MLOAD PUSH2 0x19AA DUP9 DUP3 PUSH2 0x170A JUMP JUMPDEST SWAP8 POP PUSH2 0x19B5 DUP4 PUSH2 0x1F8D JUMP JUMPDEST SWAP3 POP POP PUSH1 0x1 DUP2 ADD SWAP1 POP PUSH2 0x1996 JUMP JUMPDEST POP DUP6 SWAP4 POP POP POP POP SWAP3 SWAP2 POP POP JUMP JUMPDEST PUSH1 0x0 PUSH2 0x19DB DUP3 PUSH2 0x1F4E JUMP JUMPDEST PUSH2 0x19E5 DUP2 DUP6 PUSH2 0x2000 JUMP JUMPDEST SWAP4 POP PUSH2 0x19F5 DUP2 DUP6 PUSH1 0x20 DUP7 ADD PUSH2 0x20CE JUMP JUMPDEST PUSH2 0x19FE DUP2 PUSH2 0x2282 JUMP JUMPDEST DUP5 ADD SWAP2 POP POP SWAP3 SWAP2 POP POP JUMP JUMPDEST PUSH1 0x0 PUSH2 0x1A14 DUP3 PUSH2 0x1F4E JUMP JUMPDEST PUSH2 0x1A1E DUP2 DUP6 PUSH2 0x2011 JUMP JUMPDEST SWAP4 POP PUSH2 0x1A2E DUP2 DUP6 PUSH1 0x20 DUP7 ADD PUSH2 0x20CE JUMP JUMPDEST PUSH2 0x1A37 DUP2 PUSH2 0x2282 JUMP JUMPDEST DUP5 ADD SWAP2 POP POP SWAP3 SWAP2 POP POP JUMP JUMPDEST PUSH1 0x0 PUSH2 0x1A4D DUP3 PUSH2 0x1F4E JUMP JUMPDEST PUSH2 0x1A57 DUP2 DUP6 PUSH2 0x2022 JUMP JUMPDEST SWAP4 POP PUSH2 0x1A67 DUP2 DUP6 PUSH1 0x20 DUP7 ADD PUSH2 0x20CE JUMP JUMPDEST DUP1 DUP5 ADD SWAP2 POP POP SWAP3 SWAP2 POP POP JUMP JUMPDEST PUSH1 0x0 PUSH2 0x1A80 PUSH1 0x21 DUP4 PUSH2 0x2011 JUMP JUMPDEST SWAP2 POP PUSH2 0x1A8B DUP3 PUSH2 0x2293 JUMP JUMPDEST PUSH1 0x40 DUP3 ADD SWAP1 POP SWAP2 SWAP1 POP JUMP JUMPDEST PUSH1 0x0 PUSH2 0x1AA3 PUSH1 0x16 DUP4 PUSH2 0x2011 JUMP JUMPDEST SWAP2 POP PUSH2 0x1AAE DUP3 PUSH2 0x22E2 JUMP JUMPDEST PUSH1 0x20 DUP3 ADD SWAP1 POP SWAP2 SWAP1 POP JUMP JUMPDEST PUSH1 0x0 PUSH2 0x1AC6 PUSH1 0x23 DUP4 PUSH2 0x2011 JUMP JUMPDEST SWAP2 POP PUSH2 0x1AD1 DUP3 PUSH2 0x230B JUMP JUMPDEST PUSH1 0x40 DUP3 ADD SWAP1 POP SWAP2 SWAP1 POP JUMP JUMPDEST PUSH1 0x0 PUSH2 0x1AE9 PUSH1 0x13 DUP4 PUSH2 0x2011 JUMP JUMPDEST SWAP2 POP PUSH2 0x1AF4 DUP3 PUSH2 0x235A JUMP JUMPDEST PUSH1 0x20 DUP3 ADD SWAP1 POP SWAP2 SWAP1 POP JUMP JUMPDEST PUSH1 0x0 PUSH2 0x1B0C PUSH1 0x22 DUP4 PUSH2 0x2011 JUMP JUMPDEST SWAP2 POP PUSH2 0x1B17 DUP3 PUSH2 0x2383 JUMP JUMPDEST PUSH1 0x40 DUP3 ADD SWAP1 POP SWAP2 SWAP1 POP JUMP JUMPDEST PUSH1 0x0 PUSH2 0x1B2F PUSH1 0x15 DUP4 PUSH2 0x2011 JUMP JUMPDEST SWAP2 POP PUSH2 0x1B3A DUP3 PUSH2 0x23D2 JUMP JUMPDEST PUSH1 0x20 DUP3 ADD SWAP1 POP SWAP2 SWAP1 POP JUMP JUMPDEST PUSH1 0x0 PUSH2 0x140 DUP4 ADD PUSH1 0x0 DUP4 ADD MLOAD DUP5 DUP3 SUB PUSH1 0x0 DUP7 ADD MSTORE PUSH2 0x1B63 DUP3 DUP3 PUSH2 0x1740 JUMP JUMPDEST SWAP2 POP POP PUSH1 0x20 DUP4 ADD MLOAD DUP5 DUP3 SUB PUSH1 0x20 DUP7 ADD MSTORE PUSH2 0x1B7D DUP3 DUP3 PUSH2 0x1888 JUMP JUMPDEST SWAP2 POP POP PUSH1 0x40 DUP4 ADD MLOAD DUP5 DUP3 SUB PUSH1 0x40 DUP7 ADD MSTORE PUSH2 0x1B97 DUP3 DUP3 PUSH2 0x1888 JUMP JUMPDEST SWAP2 POP POP PUSH1 0x60 DUP4 ADD MLOAD DUP5 DUP3 SUB PUSH1 0x60 DUP7 ADD MSTORE PUSH2 0x1BB1 DUP3 DUP3 PUSH2 0x1972 JUMP JUMPDEST SWAP2 POP POP PUSH1 0x80 DUP4 ADD MLOAD DUP5 DUP3 SUB PUSH1 0x80 DUP7 ADD MSTORE PUSH2 0x1BCB DUP3 DUP3 PUSH2 0x1972 JUMP JUMPDEST SWAP2 POP POP PUSH1 0xA0 DUP4 ADD MLOAD DUP5 DUP3 SUB PUSH1 0xA0 DUP7 ADD MSTORE PUSH2 0x1BE5 DUP3 DUP3 PUSH2 0x1972 JUMP JUMPDEST SWAP2 POP POP PUSH1 0xC0 DUP4 ADD MLOAD DUP5 DUP3 SUB PUSH1 0xC0 DUP7 ADD MSTORE PUSH2 0x1BFF DUP3 DUP3 PUSH2 0x1972 JUMP JUMPDEST SWAP2 POP POP PUSH1 0xE0 DUP4 ADD MLOAD DUP5 DUP3 SUB PUSH1 0xE0 DUP7 ADD MSTORE PUSH2 0x1C19 DUP3 DUP3 PUSH2 0x179E JUMP JUMPDEST SWAP2 POP POP PUSH2 0x100 DUP4 ADD MLOAD DUP5 DUP3 SUB PUSH2 0x100 DUP7 ADD MSTORE PUSH2 0x1C35 DUP3 DUP3 PUSH2 0x1813 JUMP JUMPDEST SWAP2 POP POP PUSH2 0x120 DUP4 ADD MLOAD DUP5 DUP3 SUB PUSH2 0x120 DUP7 ADD MSTORE PUSH2 0x1C51 DUP3 DUP3 PUSH2 0x1972 JUMP JUMPDEST SWAP2 POP POP DUP1 SWAP2 POP POP SWAP3 SWAP2 POP POP JUMP JUMPDEST PUSH2 0x1C67 DUP2 PUSH2 0x20B5 JUMP JUMPDEST DUP3 MSTORE POP POP JUMP JUMPDEST PUSH2 0x1C76 DUP2 PUSH2 0x20B5 JUMP JUMPDEST DUP3 MSTORE POP POP JUMP JUMPDEST PUSH1 0x0 PUSH2 0x1C88 DUP3 DUP5 PUSH2 0x1A42 JUMP JUMPDEST SWAP2 POP DUP2 SWAP1 POP SWAP3 SWAP2 POP POP JUMP JUMPDEST PUSH1 0x0 PUSH1 0x20 DUP3 ADD SWAP1 POP PUSH2 0x1CA8 PUSH1 0x0 DUP4 ADD DUP5 PUSH2 0x1731 JUMP JUMPDEST SWAP3 SWAP2 POP POP JUMP JUMPDEST PUSH1 0x0 PUSH1 0x20 DUP3 ADD SWAP1 POP DUP2 DUP2 SUB PUSH1 0x0 DUP4 ADD MSTORE PUSH2 0x1CC8 DUP2 DUP5 PUSH2 0x1A09 JUMP JUMPDEST SWAP1 POP SWAP3 SWAP2 POP POP JUMP JUMPDEST PUSH1 0x0 PUSH1 0x20 DUP3 ADD SWAP1 POP DUP2 DUP2 SUB PUSH1 0x0 DUP4 ADD MSTORE PUSH2 0x1CE9 DUP2 PUSH2 0x1A73 JUMP JUMPDEST SWAP1 POP SWAP2 SWAP1 POP JUMP JUMPDEST PUSH1 0x0 PUSH1 0x20 DUP3 ADD SWAP1 POP DUP2 DUP2 SUB PUSH1 0x0 DUP4 ADD MSTORE PUSH2 0x1D09 DUP2 PUSH2 0x1A96 JUMP JUMPDEST SWAP1 POP SWAP2 SWAP1 POP JUMP JUMPDEST PUSH1 0x0 PUSH1 0x20 DUP3 ADD SWAP1 POP DUP2 DUP2 SUB PUSH1 0x0 DUP4 ADD MSTORE PUSH2 0x1D29 DUP2 PUSH2 0x1AB9 JUMP JUMPDEST SWAP1 POP SWAP2 SWAP1 POP JUMP JUMPDEST PUSH1 0x0 PUSH1 0x20 DUP3 ADD SWAP1 POP DUP2 DUP2 SUB PUSH1 0x0 DUP4 ADD MSTORE PUSH2 0x1D49 DUP2 PUSH2 0x1ADC JUMP JUMPDEST SWAP1 POP SWAP2 SWAP1 POP JUMP JUMPDEST PUSH1 0x0 PUSH1 0x20 DUP3 ADD SWAP1 POP DUP2 DUP2 SUB PUSH1 0x0 DUP4 ADD MSTORE PUSH2 0x1D69 DUP2 PUSH2 0x1AFF JUMP JUMPDEST SWAP1 POP SWAP2 SWAP1 POP JUMP JUMPDEST PUSH1 0x0 PUSH1 0x20 DUP3 ADD SWAP1 POP DUP2 DUP2 SUB PUSH1 0x0 DUP4 ADD MSTORE PUSH2 0x1D89 DUP2 PUSH2 0x1B22 JUMP JUMPDEST SWAP1 POP SWAP2 SWAP1 POP JUMP JUMPDEST PUSH1 0x0 PUSH1 0x20 DUP3 ADD SWAP1 POP DUP2 DUP2 SUB PUSH1 0x0 DUP4 ADD MSTORE PUSH2 0x1DAA DUP2 DUP5 PUSH2 0x1B45 JUMP JUMPDEST SWAP1 POP SWAP3 SWAP2 POP POP JUMP JUMPDEST PUSH1 0x0 PUSH2 0x100 DUP3 ADD SWAP1 POP PUSH2 0x1DC8 PUSH1 0x0 DUP4 ADD DUP12 PUSH2 0x1C6D JUMP JUMPDEST PUSH2 0x1DD5 PUSH1 0x20 DUP4 ADD DUP11 PUSH2 0x1731 JUMP JUMPDEST DUP2 DUP2 SUB PUSH1 0x40 DUP4 ADD MSTORE PUSH2 0x1DE7 DUP2 DUP10 PUSH2 0x1A09 JUMP JUMPDEST SWAP1 POP DUP2 DUP2 SUB PUSH1 0x60 DUP4 ADD MSTORE PUSH2 0x1DFB DUP2 DUP9 PUSH2 0x1A09 JUMP JUMPDEST SWAP1 POP PUSH2 0x1E0A PUSH1 0x80 DUP4 ADD DUP8 PUSH2 0x1C6D JUMP JUMPDEST PUSH2 0x1E17 PUSH1 0xA0 DUP4 ADD DUP7 PUSH2 0x1C6D JUMP JUMPDEST PUSH2 0x1E24 PUSH1 0xC0 DUP4 ADD DUP6 PUSH2 0x1C6D JUMP JUMPDEST DUP2 DUP2 SUB PUSH1 0xE0 DUP4 ADD MSTORE PUSH2 0x1E36 DUP2 DUP5 PUSH2 0x18FD JUMP JUMPDEST SWAP1 POP SWAP10 SWAP9 POP POP POP POP POP POP POP POP POP JUMP JUMPDEST PUSH1 0x0 PUSH2 0x1E4F PUSH2 0x1E60 JUMP JUMPDEST SWAP1 POP PUSH2 0x1E5B DUP3 DUP3 PUSH2 0x2133 JUMP JUMPDEST SWAP2 SWAP1 POP JUMP JUMPDEST PUSH1 0x0 PUSH1 0x40 MLOAD SWAP1 POP SWAP1 JUMP JUMPDEST PUSH1 0x0 PUSH8 0xFFFFFFFFFFFFFFFF DUP3 GT ISZERO PUSH2 0x1E85 JUMPI PUSH2 0x1E84 PUSH2 0x223A JUMP JUMPDEST JUMPDEST PUSH1 0x20 DUP3 MUL SWAP1 POP PUSH1 0x20 DUP2 ADD SWAP1 POP SWAP2 SWAP1 POP JUMP JUMPDEST PUSH1 0x0 PUSH8 0xFFFFFFFFFFFFFFFF DUP3 GT ISZERO PUSH2 0x1EB1 JUMPI PUSH2 0x1EB0 PUSH2 0x223A JUMP JUMPDEST JUMPDEST PUSH2 0x1EBA DUP3 PUSH2 0x2282 JUMP JUMPDEST SWAP1 POP PUSH1 0x20 DUP2 ADD SWAP1 POP SWAP2 SWAP1 POP JUMP JUMPDEST PUSH1 0x0 DUP2 SWAP1 POP PUSH1 0x20 DUP3 ADD SWAP1 POP SWAP2 SWAP1 POP JUMP JUMPDEST PUSH1 0x0 DUP2 SWAP1 POP PUSH1 0x20 DUP3 ADD SWAP1 POP SWAP2 SWAP1 POP JUMP JUMPDEST PUSH1 0x0 DUP2 SWAP1 POP PUSH1 0x20 DUP3 ADD SWAP1 POP SWAP2 SWAP1 POP JUMP JUMPDEST PUSH1 0x0 DUP2 SWAP1 POP PUSH1 0x20 DUP3 ADD SWAP1 POP SWAP2 SWAP1 POP JUMP JUMPDEST PUSH1 0x0 DUP2 SWAP1 POP PUSH1 0x20 DUP3 ADD SWAP1 POP SWAP2 SWAP1 POP JUMP JUMPDEST PUSH1 0x0 DUP2 MLOAD SWAP1 POP SWAP2 SWAP1 POP JUMP JUMPDEST PUSH1 0x0 DUP2 MLOAD SWAP1 POP SWAP2 SWAP1 POP JUMP JUMPDEST PUSH1 0x0 DUP2 MLOAD SWAP1 POP SWAP2 SWAP1 POP JUMP JUMPDEST PUSH1 0x0 DUP2 MLOAD SWAP1 POP SWAP2 SWAP1 POP JUMP JUMPDEST PUSH1 0x0 DUP2 MLOAD SWAP1 POP SWAP2 SWAP1 POP JUMP JUMPDEST PUSH1 0x0 DUP2 MLOAD SWAP1 POP SWAP2 SWAP1 POP JUMP JUMPDEST PUSH1 0x0 PUSH1 0x20 DUP3 ADD SWAP1 POP SWAP2 SWAP1 POP JUMP JUMPDEST PUSH1 0x0 PUSH1 0x20 DUP3 ADD SWAP1 POP SWAP2 SWAP1 POP JUMP JUMPDEST PUSH1 0x0 PUSH1 0x20 DUP3 ADD SWAP1 POP SWAP2 SWAP1 POP JUMP JUMPDEST PUSH1 0x0 PUSH1 0x20 DUP3 ADD SWAP1 POP SWAP2 SWAP1 POP JUMP JUMPDEST PUSH1 0x0 PUSH1 0x20 DUP3 ADD SWAP1 POP SWAP2 SWAP1 POP JUMP JUMPDEST PUSH1 0x0 DUP3 DUP3 MSTORE PUSH1 0x20 DUP3 ADD SWAP1 POP SWAP3 SWAP2 POP POP JUMP JUMPDEST PUSH1 0x0 DUP3 DUP3 MSTORE PUSH1 0x20 DUP3 ADD SWAP1 POP SWAP3 SWAP2 POP POP JUMP JUMPDEST PUSH1 0x0 DUP3 DUP3 MSTORE PUSH1 0x20 DUP3 ADD SWAP1 POP SWAP3 SWAP2 POP POP JUMP JUMPDEST PUSH1 0x0 DUP3 DUP3 MSTORE PUSH1 0x20 DUP3 ADD SWAP1 POP SWAP3 SWAP2 POP POP JUMP JUMPDEST PUSH1 0x0 DUP3 DUP3 MSTORE PUSH1 0x20 DUP3 ADD SWAP1 POP SWAP3 SWAP2 POP POP JUMP JUMPDEST PUSH1 0x0 DUP3 DUP3 MSTORE PUSH1 0x20 DUP3 ADD SWAP1 POP SWAP3 SWAP2 POP POP JUMP JUMPDEST PUSH1 0x0 DUP3 DUP3 MSTORE PUSH1 0x20 DUP3 ADD SWAP1 POP SWAP3 SWAP2 POP POP JUMP JUMPDEST PUSH1 0x0 DUP3 DUP3 MSTORE PUSH1 0x20 DUP3 ADD SWAP1 POP SWAP3 SWAP2 POP POP JUMP JUMPDEST PUSH1 0x0 DUP2 SWAP1 POP SWAP3 SWAP2 POP POP JUMP JUMPDEST PUSH1 0x0 PUSH2 0x2038 DUP3 PUSH2 0x20B5 JUMP JUMPDEST SWAP2 POP PUSH2 0x2043 DUP4 PUSH2 0x20B5 JUMP JUMPDEST SWAP3 POP DUP3 PUSH32 0xFFFFFFFFFFFFFFFFFFFFFFFFFFFFFFFFFFFFFFFFFFFFFFFFFFFFFFFFFFFFFFFF SUB DUP3 GT ISZERO PUSH2 0x2078 JUMPI PUSH2 0x2077 PUSH2 0x21AD JUMP JUMPDEST JUMPDEST DUP3 DUP3 ADD SWAP1 POP SWAP3 SWAP2 POP POP JUMP JUMPDEST PUSH1 0x0 PUSH2 0x208E DUP3 PUSH2 0x2095 JUMP JUMPDEST SWAP1 POP SWAP2 SWAP1 POP JUMP JUMPDEST PUSH1 0x0 PUSH20 0xFFFFFFFFFFFFFFFFFFFFFFFFFFFFFFFFFFFFFFFF DUP3 AND SWAP1 POP SWAP2 SWAP1 POP JUMP JUMPDEST PUSH1 0x0 DUP2 SWAP1 POP SWAP2 SWAP1 POP JUMP JUMPDEST DUP3 DUP2 DUP4 CALLDATACOPY PUSH1 0x0 DUP4 DUP4 ADD MSTORE POP POP POP JUMP JUMPDEST PUSH1 0x0 JUMPDEST DUP4 DUP2 LT ISZERO PUSH2 0x20EC JUMPI DUP1 DUP3 ADD MLOAD DUP2 DUP5 ADD MSTORE PUSH1 0x20 DUP2 ADD SWAP1 POP PUSH2 0x20D1 JUMP JUMPDEST DUP4 DUP2 GT ISZERO PUSH2 0x20FB JUMPI PUSH1 0x0 DUP5 DUP5 ADD MSTORE JUMPDEST POP POP POP POP JUMP JUMPDEST PUSH1 0x0 PUSH1 0x2 DUP3 DIV SWAP1 POP PUSH1 0x1 DUP3 AND DUP1 PUSH2 0x2119 JUMPI PUSH1 0x7F DUP3 AND SWAP2 POP JUMPDEST PUSH1 0x20 DUP3 LT DUP2 EQ ISZERO PUSH2 0x212D JUMPI PUSH2 0x212C PUSH2 0x21DC JUMP JUMPDEST JUMPDEST POP SWAP2 SWAP1 POP JUMP JUMPDEST PUSH2 0x213C DUP3 PUSH2 0x2282 JUMP JUMPDEST DUP2 ADD DUP2 DUP2 LT PUSH8 0xFFFFFFFFFFFFFFFF DUP3 GT OR ISZERO PUSH2 0x215B JUMPI PUSH2 0x215A PUSH2 0x223A JUMP JUMPDEST JUMPDEST DUP1 PUSH1 0x40 MSTORE POP POP POP JUMP JUMPDEST PUSH1 0x0 PUSH2 0x216F DUP3 PUSH2 0x20B5 JUMP JUMPDEST SWAP2 POP PUSH32 0xFFFFFFFFFFFFFFFFFFFFFFFFFFFFFFFFFFFFFFFFFFFFFFFFFFFFFFFFFFFFFFFF DUP3 EQ ISZERO PUSH2 0x21A2 JUMPI PUSH2 0x21A1 PUSH2 0x21AD JUMP JUMPDEST JUMPDEST PUSH1 0x1 DUP3 ADD SWAP1 POP SWAP2 SWAP1 POP JUMP JUMPDEST PUSH32 0x4E487B7100000000000000000000000000000000000000000000000000000000 PUSH1 0x0 MSTORE PUSH1 0x11 PUSH1 0x4 MSTORE PUSH1 0x24 PUSH1 0x0 REVERT JUMPDEST PUSH32 0x4E487B7100000000000000000000000000000000000000000000000000000000 PUSH1 0x0 MSTORE PUSH1 0x22 PUSH1 0x4 MSTORE PUSH1 0x24 PUSH1 0x0 REVERT JUMPDEST PUSH32 0x4E487B7100000000000000000000000000000000000000000000000000000000 PUSH1 0x0 MSTORE PUSH1 0x32 PUSH1 0x4 MSTORE PUSH1 0x24 PUSH1 0x0 REVERT JUMPDEST PUSH32 0x4E487B7100000000000000000000000000000000000000000000000000000000 PUSH1 0x0 MSTORE PUSH1 0x41 PUSH1 0x4 MSTORE PUSH1 0x24 PUSH1 0x0 REVERT JUMPDEST PUSH1 0x0 DUP1 REVERT JUMPDEST PUSH1 0x0 DUP1 REVERT JUMPDEST PUSH1 0x0 DUP1 REVERT JUMPDEST PUSH1 0x0 DUP1 REVERT JUMPDEST PUSH1 0x0 DUP1 REVERT JUMPDEST PUSH1 0x0 PUSH1 0x1F NOT PUSH1 0x1F DUP4 ADD AND SWAP1 POP SWAP2 SWAP1 POP JUMP JUMPDEST PUSH32 0x5573657220646F6573206E6F74206861766520656E6F7567682062616C616E63 PUSH1 0x0 DUP3 ADD MSTORE PUSH32 0x6500000000000000000000000000000000000000000000000000000000000000 PUSH1 0x20 DUP3 ADD MSTORE POP JUMP JUMPDEST PUSH32 0x557365722068617320616C726561647920766F74656400000000000000000000 PUSH1 0x0 DUP3 ADD MSTORE POP JUMP JUMPDEST PUSH32 0x557365722068617320747269656420766F74696E6720696E2074686520667574 PUSH1 0x0 DUP3 ADD MSTORE PUSH32 0x7572650000000000000000000000000000000000000000000000000000000000 PUSH1 0x20 DUP3 ADD MSTORE POP JUMP JUMPDEST PUSH32 0x506F6C6C20646F6573206E6F7420657869737400000000000000000000000000 PUSH1 0x0 DUP3 ADD MSTORE POP JUMP JUMPDEST PUSH32 0x557365722068617320747269656420766F74696E6720666F7220746865207061 PUSH1 0x0 DUP3 ADD MSTORE PUSH32 0x7374000000000000000000000000000000000000000000000000000000000000 PUSH1 0x20 DUP3 ADD MSTORE POP JUMP JUMPDEST PUSH32 0x4F7074696F6E20646F6573206E6F742065786973740000000000000000000000 PUSH1 0x0 DUP3 ADD MSTORE POP JUMP JUMPDEST PUSH2 0x2404 DUP2 PUSH2 0x20B5 JUMP JUMPDEST DUP2 EQ PUSH2 0x240F JUMPI PUSH1 0x0 DUP1 REVERT JUMPDEST POP JUMP INVALID LOG2 PUSH5 0x6970667358 0x22 SLT KECCAK256 NUMBER 0xDC DUP1 0xB4 ADDMOD PUSH2 0xBCF4 PUSH26 0x38775097AC5C2F10DDBCEC99EA935909CE1AE46D8A44B064736F PUSH13 0x63430008070033000000000000 "
		},
		"gasEstimates": {
			"creation": {
				"codeDepositCost": "1857600",
				"executionCost": "26228",
				"totalCost": "1883828"
			},
			"external": {
				"createPoll(string,string,uint256,uint256,uint256,string[])": "infinite",
				"createUser(string)": "infinite",
				"getPolls()": "infinite",
				"getUser()": "infinite",
				"owner()": "2558",
				"vote(uint256,uint256)": "infinite"
			},
			"internal": {
				"validStr(string memory)": "infinite"
			}
		},
		"methodIdentifiers": {
			"createPoll(string,string,uint256,uint256,uint256,string[])": "96db2551",
			"createUser(string)": "507ffba5",
			"getPolls()": "120fe89b",
			"getUser()": "832880e7",
			"owner()": "8da5cb5b",
			"vote(uint256,uint256)": "b384abef"
		}
	},
	"abi": [
		{
			"inputs": [],
			"stateMutability": "nonpayable",
			"type": "constructor"
		},
		{
			"anonymous": false,
			"inputs": [
				{
					"indexed": false,
					"internalType": "uint256",
					"name": "pollId",
					"type": "uint256"
				},
				{
					"indexed": false,
					"internalType": "address",
					"name": "owner",
					"type": "address"
				},
				{
					"indexed": false,
					"internalType": "string",
					"name": "name",
					"type": "string"
				},
				{
					"indexed": false,
					"internalType": "string",
					"name": "description",
					"type": "string"
				},
				{
					"indexed": false,
					"internalType": "uint256",
					"name": "start_time",
					"type": "uint256"
				},
				{
					"indexed": false,
					"internalType": "uint256",
					"name": "end_time",
					"type": "uint256"
				},
				{
					"indexed": false,
					"internalType": "uint256",
					"name": "fee",
					"type": "uint256"
				},
				{
					"indexed": false,
					"internalType": "string[]",
					"name": "options",
					"type": "string[]"
				}
			],
			"name": "createPollEvt",
			"type": "event"
		},
		{
			"inputs": [
				{
					"internalType": "string",
					"name": "name",
					"type": "string"
				},
				{
					"internalType": "string",
					"name": "description",
					"type": "string"
				},
				{
					"internalType": "uint256",
					"name": "start_time",
					"type": "uint256"
				},
				{
					"internalType": "uint256",
					"name": "end_time",
					"type": "uint256"
				},
				{
					"internalType": "uint256",
					"name": "fee",
					"type": "uint256"
				},
				{
					"internalType": "string[]",
					"name": "options",
					"type": "string[]"
				}
			],
			"name": "createPoll",
			"outputs": [],
			"stateMutability": "nonpayable",
			"type": "function"
		},
		{
			"inputs": [
				{
					"internalType": "string",
					"name": "username",
					"type": "string"
				}
			],
			"name": "createUser",
			"outputs": [],
			"stateMutability": "nonpayable",
			"type": "function"
		},
		{
			"inputs": [],
			"name": "getPolls",
			"outputs": [
				{
					"components": [
						{
							"internalType": "address[]",
							"name": "poll_owners",
							"type": "address[]"
						},
						{
							"internalType": "string[]",
							"name": "poll_names",
							"type": "string[]"
						},
						{
							"internalType": "string[]",
							"name": "poll_descriptions",
							"type": "string[]"
						},
						{
							"internalType": "uint256[]",
							"name": "poll_start_times",
							"type": "uint256[]"
						},
						{
							"internalType": "uint256[]",
							"name": "poll_end_times",
							"type": "uint256[]"
						},
						{
							"internalType": "uint256[]",
							"name": "poll_fees",
							"type": "uint256[]"
						},
						{
							"internalType": "uint256[]",
							"name": "poll_ids",
							"type": "uint256[]"
						},
						{
							"internalType": "string[][]",
							"name": "poll_options",
							"type": "string[][]"
						},
						{
							"internalType": "uint256[][]",
							"name": "poll_options_votes",
							"type": "uint256[][]"
						},
						{
							"internalType": "uint256[]",
							"name": "poll_voted_idxs",
							"type": "uint256[]"
						}
					],
					"internalType": "struct Voting.GetVotesReturn",
					"name": "poll_data",
					"type": "tuple"
				}
			],
			"stateMutability": "view",
			"type": "function"
		},
		{
			"inputs": [],
			"name": "getUser",
			"outputs": [
				{
					"internalType": "string",
					"name": "username",
					"type": "string"
				}
			],
			"stateMutability": "view",
			"type": "function"
		},
		{
			"inputs": [],
			"name": "owner",
			"outputs": [
				{
					"internalType": "address",
					"name": "",
					"type": "address"
				}
			],
			"stateMutability": "view",
			"type": "function"
		},
		{
			"inputs": [
				{
					"internalType": "uint256",
					"name": "poll_id",
					"type": "uint256"
				},
				{
					"internalType": "uint256",
					"name": "option_id",
					"type": "uint256"
				}
			],
			"name": "vote",
			"outputs": [],
			"stateMutability": "payable",
			"type": "function"
		}
	]
}